:020000040800F2
:10300000581E0020ED300008F5400008F54000088B
:10301000F5400008F5400008F5400008F5400008BC
:10302000F5400008F5400008F5400008F3410008AD
:10303000F5400008F5400008F54000082941000867
:1030400029410008294100082941000829410008B8
:1030500029410008294100082941000829410008A8
:103060002941000829410008294100082941000898
:103070002941000829410008294100082941000888
:103080002941000829410008294100082941000878
:103090002941000829410008294100082941000868
:1030A0002941000829410008294100082941000858
:1030B0002941000829410008294100082941000848
:1030C0002941000829410008294100082941000838
:1030D0002941000829410008294100082941000828
:1030E00029410008294100082941000871B610480B
:1030F00000B180474FF000000E490F4A914204D2C0
:10310000086001F104019142FAD30C490C4A914242
:1031100008D20C4B0868186001F1040103F10403A4
:103120009142F7D3084800B1804701F01FFBFEE74A
:10313000000000000000002084110020F070000852
:10314000F0700008000000200000000046F6B451B6
:1031500010B50520C0F6000140F2444200F080FEA8
:1031600010BDC046104B8200D21852F8041C002239
:10317000CB6823F40053CB6040F27123012818BFC1
:103180004FF49C730A61CA604A618B60CA6842F05E
:103190000C02CA604B6943F001034B61CA6842F4F8
:1031A0000052CA607047C046106A000846F61023F5
:1031B000C0F600038000C01850F8042CD36823F434
:1031C0000053D3607047C04641F25C0343F60002EF
:1031D000C2F200030021C4F2010219605A60996032
:1031E0007047C046012870B50D4602DD0024204618
:1031F00070BD830002010349D21A5418A560FFF77D
:10320000B1FFF4E750100020006810B50130FFF75F
:10321000CDFF10BD4268136813F080001CBF5160E1
:1032200001207047054B8900C91851F8042C5060E3
:10323000136813F0800FFBD07047C046106A000877
:10324000012907D0022904D14268D36823F0200362
:10325000D36070474268D36823F08003D360F8E7F7
:10326000012907D0022904D14268D36843F0200322
:10327000D36070474268D36843F08003D360F8E7B7
:1032800082000B4B0001801A10B5C41862681368E5
:1032900013F0800F07D1136813F0200F02D0A0683D
:1032A00000F06CFB10BDA06800F028F96268F2E73E
:1032B000501000204268136813F0200F16BF5368A7
:1032C0004FF0FF3003F0FF007047C04600B546F6F0
:1032D000142389B00122C0F60003009202930392E6
:1032E00003239218052069460493059200F018F80C
:1032F00009B000BD40F20003C2F2000300223F21EA
:103300001A605A609A60DA601A6159617047C04663
:1033100040F20003C2F200031861596100207047B7
:103320002DE9F0470F46EFF3138971B6264BDFF80E
:10333000A0E01A68012303FA00F8DEF810304A60B2
:1033400018EA030F1ED0DEF804C00D464FEA4C14F5
:103350007444183426460FCD0FC60CF1010CBCF195
:103360001F0F95E80F00CEF804C086E80F0002D9C1
:103370000023CEF80430DEF800301F2B0ED80133C6
:10338000CEF80030DEF8143018EA030F14D1B9F18A
:10339000010F00D061B60020BDE8F087DEF80C30E8
:1033A000DEF804200133CEF80C30DEF81430CEF80D
:1033B000082018EA030FEAD03846044900F026FD39
:1033C0000A2000F09FFFE2E7781100200543000883
:1033D00000000020EFF3138371B6012B0BD00B49D3
:1033E0000B680360CA6842600B6983604A69C26007
:1033F00061B60020704705490B680360CA684260E7
:103400000B6983604A69C260F3E7C0460000002090
:103410002DE9F0438646EFF3138971B6154FD7F8BF
:103420000080B8F1000F07D16FF02800B9F1010F4B
:1034300000D061B6BDE8F083D7F808C076464FEA01
:103440004C14E419183425460FCD0FC60CF1010CAD
:1034500095E80F00BCF11F0F86E80F0008F1FF335D
:103460003B60C7F808C001D90023BB600023F8689F
:10347000FB60DBE7000000200123C3606FF0040065
:103480007047C04643B213F1330F06D013F1310F2A
:1034900003D00123CB606FF00400704740F2184363
:1034A00046F68032C2F20003C0F6000200211A6024
:1034B00099607047012810B586460C4601D000205F
:1034C00010BD0D488368002BF9D0036B002BF6D09C
:1034D0000368826A59698B5C2370826A03680132CF
:1034E000826219698A4204D0036B013B0363704610
:1034F000E6E700238362F7E71804002070B590F830
:103500002010054641B9466B0EB9036B5BB968687C
:103510000121FFF795FE70BD4068FFF77BFE002399
:1035200085F82030F7E70368826A5C694068A15C2F
:10353000FFF770FEAB6A29680133AB620A699342F8
:1035400004BFAE620A692B6B934202D0013B2B632E
:10355000E1E7486802F032FC0028A8BF2B6BF5DADF
:103560000123EB602B6BF1E770B504460D4602F0CA
:1035700011FD10B16FF0180070BD012C18BF6FF075
:103580001100F9D1074A936813B96FF02800F3E7E7
:10359000D06820B9D3692B60126B6A60ECE76FF0DA
:1035A0000400E9E71804002070B504460D4602F057
:1035B000F1FC10B16FF0180070BD012C18BF6FF056
:1035C0001100F9D1064A936813B96FF02800F3E7A8
:1035D000D06808B91561EFE76FF00400ECE7C0466A
:1035E000180400202DE9F041054602F0D3FC044602
:1035F00020B16FF018042046BDE8F081012D18BFFE
:103600006FF01104F7D102F0C1FD00281A4E2EDB35
:10361000B36853B96FF0280402F072FD0028EADAAB
:103620001548FFF729FF0446E5E702F0FBFD0746D2
:103630007068FFF7E9FDB46002F0E0FC3368002831
:103640005868B4BF2C46FC0F02F094FA336834EA91
:10365000200428BF0124186802F08CFA002801DB3E
:10366000002CD9D00448FFF707FF0446D4E73046C2
:10367000FFF702FF0446BEE71804002070B50446B9
:1036800002F088FC18B16FF01804204670BD012CC0
:1036900018BF6FF01104F8D102F078FD00281C4E1D
:1036A00031DBB56855B16FF0280402F029FD002820
:1036B000EBDA1748FFF7E0FE0446E6E740F2115365
:1036C0003361B5617561F56186F820507562F56208
:1036D000B5623563756302F0A5FD002810DB204656
:1036E0003146FFF77FFD02217060FFF7B9FDB4603E
:1036F000F56002F083FC0028A8BF2C46D5DAF46000
:103700006FF00404D1E73046FFF7B6FE0446BCE78D
:10371000180400200A2970B504460D462AD002F08C
:1037200081FD00283ADB236B002B19D02368E26A65
:1037300059698D54E36A21680133E3620A6993424F
:1037400030D0236B013323630A69934214BF0025F1
:10375000012502F053FC0028A8BF28461EDB70BDDF
:10376000666B002EE2D160682946FFF753FDE0B199
:103770003546EEE7036913F0100FD0D00D21FFF7A7
:10378000C9FF0028EBDBCAD02368586802F0C8FAEA
:103790000028C4DA2146FFF775FEE0E72046FFF770
:1037A0006BFEDCE70023E362CBE760680121FFF7F3
:1037B00057FDBBE72DE9F04704460E46154602F0DB
:1037C000E9FB18B16FF01800BDE8F087012C18BFB5
:1037D0006FF01100F8D1444FBB6813B96FF02800A7
:1037E000F2E7FB68002B7CD1002D78D0204698466C
:1037F000994628B13B68186802F092FA00286ADB03
:1038000002F010FD00285FDB39687A69CB6813F895
:10381000029001327A618B689A4201D100237B6168
:10382000FB695C1E7B6AFC6123B13B689A68B4EB60
:10383000520F1ED902F0E2FB002845DBD4F101044F
:1038400038BF002408F806903B6908F1010813F01E
:10385000010F16D1A8452046CBD1002C2AD13B68B8
:10386000186802F015FB002824DA1F48FFF704FE51
:1038700020E078681121FFF7CDFCE8B100237B62DE
:10388000D8E73B68586802F04BFA002823DB16485B
:103890004946FFF73FFF002809DBDBD13B6858684A
:1038A00002F0F6FA0028D5DA0F48FFF7E5FDB8F187
:1038B000000F89D0404687E778680121FFF7D0FCE8
:1038C000112387F82030D9E70748FFF7D5FD0028F6
:1038D0000446B7DAEBE70449FFF7D4FDE7E72846EB
:1038E00072E76FF004006FE7180400202DE9F04143
:1038F00004460E46154602F04DFB18B16FF0180055
:10390000BDE8F081012C18BF6FF01100F8D11A4FFB
:10391000BB6813B96FF02800F2E7FB68002B27D1D2
:1039200025B322461C462AB13B68586802F0F8F9D4
:10393000002814DB1048A15DFFF7ECFE002811DB26
:103940000134AC420246EED170B93B68586802F0CF
:103950009FFA002808DA0848FFF78EFD04E00649C0
:10396000FFF790FD002CCBD02046C9E72846C7E7DB
:103970006FF00400C4E7C0461804002070B5054687
:103980004068FFF797FC2969C0B20B0A03F00102F7
:10399000132814BF002602F0010616B101236B6341
:1039A00070BD6B6B002B31D1112814BF002302F0C6
:1039B0000103002BF4D12968EA698B689A42EFD0A1
:1039C000AB69C968C854AA6928680132AA618368CA
:1039D0009A4247D0EB69002B39D0581C2B69E8611B
:1039E00013F4806FDCD06B6A002BD9D12B689968F7
:1039F0004A005218B0EB920FD2D368681321FFF738
:103A000009FC002841D001236B62C9E7112802D0CC
:103A100011F4007FCFD02B6B6E63002BC0D02B68CE
:103A2000AA6A5C696868A15CFFF7F4FB002827D0EC
:103A3000AB6A29680133AB620A69934204BFAE6284
:103A40000A692B6B934210D0013B2B63A8E70068F7
:103A500002F0B4F90028A8BFEB69BEDA0123EB60DD
:103A6000EB69BAE70023AB61B4E7486802F0A6F956
:103A70000028A8BF2B6BE7DA0123EB602B6BE3E791
:103A800068680121FFF7ECFB8AE768680121FFF70E
:103A9000E7FB132385F82030B5E7C04670B58AB040
:103AA0001A4D0DF1270403E09DF8270000F02AFCD1
:103AB00028682146FFF7FEFC0028F5D1054601AE37
:103AC0003046FFF7A5FC041E10DB8DB1C4B9019B85
:103AD000002BF5D00E49304600F098F90A2000F08E
:103AE00011FC3046FFF794FC041EEEDA0AB070BDFC
:103AF00029460848064A00F0E9F80135002CE6D0CE
:103B00002046034900F09AF9E1E7C046500600203C
:103B100005430008C06D000800B540F2506383B053
:103B200002A9C2F2000301F8010D01221868FFF793
:103B3000DDFE03B000BDC04630B51E4C91B0206024
:103B4000FFF79CFD01213F20FFF7E2FB21681A4AA5
:103B5000012303910520694600930292FFF7E0FBE1
:103B6000002408AD2846FFF753FC002811DB089B12
:103B70002418002BF6D094B91049284600F046F9D5
:103B80000A20FFF7C9FF2846FFF742FC002400285F
:103B9000EDDA4CB90A2001F0EDFD0024E2E7204601
:103BA000064900F04BF9E7E72046044900F046F9E2
:103BB000F0E7C04650060020DC6D0008193B000805
:103BC00030B587B0044602F0E5F918B16FF018007F
:103BD00007B030BD6D466846FFF7FCFB002817DBD9
:103BE000009BA34209D8B4B90C4B04A91868FFF78D
:103BF000BBFC00280CDB059B6BB1012001F0BAFD7A
:103C00000028E8DA10F1310F18BF6FF00400DFE789
:103C10006FF00400DCE70020DAE7C0465006002021
:103C20002DE9F04F85B0DDF83CB0DDF840900C4652
:103C300016461F4600250DF10508B0FBF4F104FB04
:103C400011039A5D0B1E18BF012305F808200135EA
:103C50000A2D8CBF002303F001030846002BECD192
:103C60000E9BB3F1000A18BF4FF0010A002F0CBFE2
:103C700000220AF0010202B1013FBBF1000618BFA9
:103C800001261AEA060F1ED1AF4208D92C46002E93
:103C90000CBF202030200134C847BC42F7D1BBF113
:103CA000000F14BF00230AF001034BB908EB050411
:103CB00014F8010DC8474445FAD105B0BDE8F08FAE
:103CC0002D20C847F2E72D20C847DDE7F0B50446B0
:103CD00085B00F461646207800282DD001342528BF
:103CE0002FD114F8010B30283FD0A0F13003DBB204
:103CF0000021092B41D800256B00EA009B181B18F6
:103D000014F8010BA3F13005A0F13003DBB2092B4D
:103D1000F2D96C2808BF14F8010B702834D012D8DF
:103D200063280BD03CD858284AD0D4D8002856D184
:103D3000013C20780028D1D105B0F0BD57F8040B24
:103D4000C0B2B047C7E7752846D078281CD0732882
:103D5000C1D157F8043B18780028BCD01D46B047A5
:103D600015F8010F0028FAD1B5E714F8010B01216D
:103D7000A0F13003DBB2092BBDD900256C2808BFA8
:103D800014F8010B7028CAD1002357F8040B1C4A01
:103D9000009301912B4610210296FFF741FF9AE70D
:103DA000642898D157F8040B00281DDB00230093EA
:103DB0000191144A0A212B460296FFF731FF8AE748
:103DC000002357F8040B104A009301912B46102151
:103DD0000296FFF725FF7EE757F8040BE6E7252854
:103DE0007FF479AFB04776E7012300930191404219
:103DF0000A21044A2B460296FFF712FF6BE7C046E2
:103E0000A46B0008986B0008B86B0008036810B535
:103E1000012B02468E4608D0022B05D102F1080183
:103E200005487246FFF752FF10BD02F10C01806891
:103E30007246FFF74BFFF7E7086E000810B582B037
:103E40000C4602A941F8040D46F62860C0F60000B1
:103E50002246FFF73BFF0A20A04702B010BDC04634
:103E60000EB410B58BB00DAB844653F8040B012291
:103E7000019203900993037896464BB1BEF1050F6A
:103E800006D8441C252B0CD020460378002BF5D1F6
:103E9000604601A9FFF744FA0BB0BDE8104003B03B
:103EA000704741780134A1F13003DBB2092B09D806
:103EB000C21C12F8011C1446A1F13003DBB201321E
:103EC000092BF6D96C2908BF14F8011B702919D0E9
:103ED00012D8632916D023D96429D5D1099A0AA901
:103EE000131D099312684FEA8E035B1843F81C2CCC
:103EF0000EF1010E2046C8E77529EFD07829EDD0E4
:103F00007329C1D109994FEA8E030A1D09920AAAA1
:103F10009B180A680EF1010E43F81C2C2046B4E7EA
:103F200011B9013C2046B0E75829D7D02046ACE76C
:103F30002DE9F04A89B0109D074628468B461E465B
:103F4000914600F017F846F64064C0F600040123DD
:103F500003902D1238466946009302940495059605
:103F6000CDF81890CDF81CB0FFF7DAF909B0BDE82C
:103F7000F08AC04640B23A303A281FD8DFE800F055
:103F80004A481E1E1E1E464442401E1E1E1E1E3E47
:103F90003C3A1E1E1E1E1E1E38361E1E1E1E3432AB
:103FA000302E1E1E1E1E1E1E2C2A1E1E1E1E1E28EB
:103FB00026241E1E1E221E1E1E1E2000164870478E
:103FC0001648FCE71648FAE71648F8E71648F6E7F9
:103FD0001648F4E71648F2E71648F0E71648EEE709
:103FE0001648ECE71648EAE71648E8E71648E6E719
:103FF0001648E4E71648E2E71648E0E71648DEE729
:104000001648DCE71648DAE71648D8E71648D6E738
:104010001648D4E71648D2E7786E0008886E000884
:10402000906E0008986E0008A06E0008A86E000848
:10403000B06E0008B86E0008C06E0008C86E0008B8
:10404000D06E0008D86E0008E06E0008E86E000828
:10405000F06E0008F86E0008006F0008086F000896
:10406000106F0008186F0008206F0008286F000804
:10407000706E0008002010B5FFF710FD002000F062
:10408000E1F910BD10B5002000F0EEF90020FFF7B7
:1040900031F90020FFF71AF90020FFF795F800200A
:1040A000FFF7FCF910BDC04610B500F0B9FB01F0F8
:1040B000EBFC02F039F902F0BDFA10BD10B5012099
:1040C000FFF7DEF810BDC0462DE9F04F7F480168CC
:1040D000C1F818D0DFF8F8E1C1F81CE0AAE0BDE8AB
:1040E000F04F887B10F0040F03D00869004240F0C5
:1040F000F183F746EFF311821EF0040F09D0EFF3BE
:10410000098040F8042D40F804ED80F3098800B5DB
:1041100002E004B400B56846EFF305836D4951F839
:104120002320904718E0C046EFF311821EF0040FE1
:1041300009D0EFF3098040F8042D40F804ED80F336
:10414000098800B502E004B400B56846EFF30583C2
:10415000604951F82320904771B608BC13F0040F52
:1041600001D102BC0DE0EFF3098202F1040282F3F7
:1041700009885948016839B9EFF3098202CA82F304
:10418000098881F3118818474FF0000101605349F5
:1041900081F311884FF0010151480160EFF309826A
:1041A0001168504801605048504922E90300A2F1CB
:1041B000180282F309881847444801684C4802688D
:1041C00072B14C48026891420AD02DE9F00FC1F853
:1041D00018D0DFF824E1C1F81CE02BE0BDE8F00FB7
:1041E000887B10F0040F03D0086908B100F072FB5F
:1041F00000DF71B6EFF3098000F1200080F3098839
:104200004FF0000036490860EFF3098002C880F3E0
:10421000098881F3118870473848016881F308885C
:104220002E4981F3118861B64FF0020080F31488A3
:10423000BFF36F8F2F480168244A1160002903D013
:10424000D1F818D0D1F81CF04FF0000080F314889A
:10425000BFF36F8F204A21494FF00000204C2060AF
:1042600080F3118881F311881668002EF8D0106051
:104270004FF0020080F31488BFF36F8F4FF00102FC
:10428000174C2260174C4FF000002060D2E74FF02F
:10429000000080F31488BFF36F8F00F04DBA4FF029
:1042A00000000F4C206080F31188DFF854E08A682A
:1042B000506891688F46A0F1A200002800DCF74604
:1042C000A0F164000028FBDCF74600007411002018
:1042D000DF400008986C0008E41000201000000087
:1042E000DC100020D8100020B841000800000001B8
:1042F00068110020E0100020DD410008946C0008E7
:10430000D55300080A2810B5044604D020460121E0
:10431000FEF788FF10BD0D200121FEF783FFF5E7B2
:1043200000F0E6F87047C04610B541F20002C4F252
:104330000202136843F48033136041F20004C4F2B4
:104340000204236813F4003FF7D042F20000C4F2E5
:104350000200036841F2040123F0070303600268CE
:10436000C4F2020142F0020202600B6843F480636F
:104370000B600A6842F4E0120A600B6843F4803371
:104380000B60226842F08072226041F20003C4F2A6
:1043900002031A6812F0007FF7D041F20402C4F25F
:1043A0000202136843F00203136041F20403C4F2F3
:1043B00002031A6802F00C02082AF6D100F0BCF8D9
:1043C00041F21802C4F20202136840F6040143F4F9
:1043D000804343F015031360C4F201010B6841F2FE
:1043E000000023F440730B600A68C4F201000A6005
:1043F0000B6823F440630B600A6842F480620A6031
:104400000B6823F030030B600A6842F030020A6048
:104410000B6823F0C0030B600A6842F080020A6058
:10442000036823F040730360026842F04072026048
:10443000036823F040630360026802600120FEF716
:1044400091FE10BD4EF21003CEF2000300221A605E
:104450007047C04610B54EF21003CEF200031A6842
:1044600000F000FD10BDC0464EF21000CEF200007C
:1044700003684EF2140223F00103036041F63F117A
:104480004EF21803CEF20002C0F20101CEF2000398
:1044900011601960026842F0050202607047C04670
:1044A000A0F104030B2B10B58C46864612D80F4B97
:1044B0004FEA900253F822400EF00301C900FF2397
:1044C0008B404FEA0C128A402068DB4318401043AF
:1044D000206010BDA0F110032A2BFAD823F00303AB
:1044E00003F1604404F56444E6E7C046946D0008B7
:1044F0007047C0462DE97045044684B04668D0F840
:1045000020A0456AEFF3058846F630710020C0F61A
:104510000001FFF7A5FC46F650714FEAC852002093
:10452000C0F60001D20D5346009501960294FFF7A4
:1045300097FCFFF7F5FEC0460D4B012210B51A603F
:104540000C4A002111604EF608530B4ACEF20003CC
:104550001A600B20FFF7A4FF084B1A6812F4006FD3
:104560001EBF4FF000624EF2FC031A6010BDC04641
:10457000DC100020D810002000300008846D0008F6
:10458000052816D006280BD0042800D070474EF618
:104590002452CEF20002136843F480331360F5E72F
:1045A0004EF62452CEF20002136843F480231360C7
:1045B000ECE74EF62452CEF20002136843F40033C7
:1045C0001360E3E7052816D006280BD0042800D096
:1045D00070474EF62452CEF20002136823F4803363
:1045E0001360F5E74EF62452CEF20002136823F46E
:1045F00080231360ECE74EF62452CEF200021368DB
:1046000023F400331360E3E72DE97045044684B0DA
:104610004668D0F820A0456AEFF3058846F6947105
:104620000020C0F60001FFF71BFC46F650714FEA70
:10463000C8520020C0F60001D20D534600950196E5
:104640000294FFF70DFCFFF76BFEC04670B5A0F1BA
:104650000F032B2B88B004460E46944645D802F132
:104660000F030E2B34D800F01F014FF0010E0EFA8D
:1046700001F12D4A400952F8203011EA03050DD00E
:104680000F2C3FD0A4F1100303F01F010EFA01F12B
:104690004EF280125B09CEF20002995020465FFA7A
:1046A0008CF1FFF7FDFE16F0010F0FD075B10F2C46
:1046B00031D0A4F1100101F01F0301229A404EF203
:1046C00000134909CEF2000343F8212008B070BD61
:1046D000164A02230292164A00930020CE336946FE
:1046E00003930492FEF71CFEFEE7104A0223029297
:1046F000104A00930020CD33694603930492FEF7DD
:104700000FFEFEE74EF21002CEF20002136823F015
:1047100002031360C2E74EF21002CEF200021368E9
:1047200043F002031360D1E7846D0008B46F000802
:10473000F06F0008D46F000800B583B0FFF79AFC53
:10474000034B0193019A0AB1019B9847FFF7E8FDDB
:104750000000000010B5EFF3138371B641F2580367
:10476000C2F2000300221A60FFF791FD10B5FFF7B7
:10477000DBFD00F07FFAFFF797FCFFF783FC41F2C7
:104780005803C2F2000301221A60FFF745FDC0463C
:1047900010B590F80DE004460120207300FA0EF0E9
:1047A0000C4B4FEACE01C9184A68216062604B6821
:1047B000094A1C604C60138818431080074A13682C
:1047C00013B15B7B9E4503D2054B1460186810BD86
:1047D0000020FCE7E81000206C110020E010002011
:1047E00068110020002183680173DA68837B4273BB
:1047F00061F34103DAB261F38202827301617047AF
:1048000010B5816804460A694B699B1844F29F22DF
:10481000C0F600028361C261FFF7BAFF10BDC04657
:10482000214B00212DE9F0471960204B204A1960E7
:10483000204B0120116018601F4A204B116003F1CA
:1048400080021B605B6008339342FAD11C4B4FF02F
:1048500000021A801B4A16681EB30025DFF86C9010
:10486000DFF86C80184F02E00135AE4219D059F8DC
:104870002530013B5B0103EB0804A27BDB196FF3DE
:104880000002A360A2732046FFF7ACFFA3681A687A
:1048900012F0020FE8D020460135FFF7B1FFAE421B
:1048A000E5D1BDE8F087C046E0100020E41000200C
:1048B000741100206811002070110020E810002001
:1048C0006C110020CC6B0008D06B0008106C000845
:1048D000981000202DE9F04F3B4E83B03368002B39
:1048E0006BD1EFF31183DFF8E8A0DBB2002B5ED1D0
:1048F0000193984641F27011DFF8D8B0C2F200017E
:10490000D1F80090DBF80070304D2A68937B106975
:104910006FF382039373296800220A613260DAF828
:10492000003083F311882A689368DC695968A047CE
:10493000336863B9EFF31182531E0F2B02D9102392
:1049400083F31188224B1A601F4B01221A60B8F1C1
:10495000000F26D142464146336823B1CAF80020F1
:104960000F2988BF102282F3118841F2701341F29F
:10497000E001C2F20003C2F20001C3F800902A680D
:104980000B68CBF800709A4200D06FB92A6813699F
:10499000002BBAD1937B43F00403937303B0BDE8BB
:1049A000F08F019A1146D7E7FFF78EFBEEE71B0960
:1049B000A3F110081B0101939CE7DFF814A0DAF8BB
:1049C0000030DBB292E7C046DC10002074110020FA
:1049D000D81000206811002000B5144B89B0188849
:1049E000B8B110F0FF0F11D0002110F00F0203D169
:1049F0000309043103F00F020D4BD31813F8012CF7
:104A00000C4B521853F8320009B000BD000A0821BF
:104A1000EBE7094A02230292084A00936946A3334E
:104A200003930492FEF77CFCFEE7C0466C11002065
:104A3000A46D0008E8100020207000083470000801
:104A400070B506467168336890F80DE00B601C483D
:104A500032684FEACE04516022582518954288B03A
:104A60000AD018490B68B34202D0002008B070BDCC
:104A7000154B0A601868F9E753689A420CD0134A3C
:104A800002230292124A0093002085336946039361
:104A90000492FEF745FCFEE7012303FA0EF30D49ED
:104AA000084C0A88DB4303EA020023680880B3420B
:104AB000DBD108B1FFF790FF034B20601868D5E702
:104AC000E8100020E0100020681100204470000869
:104AD000587000086C11002010B51A4C4FEAC00E37
:104AE0005EF804000EEB0401814288B019D003681F
:104AF0008B420DD04EF804300368016059604A685B
:104B000042604B68104A186048601368834202D0C4
:104B1000002008B010BD5EF8043013600B4A106826
:104B2000F7E74B689942F3D0094A02230292094AF7
:104B3000009300208533694603930492FEF7F0FB4F
:104B4000FEE7C046E8100020E010002068110020B9
:104B5000447000085870000830B5037B044613F019
:104B6000010F90F80DC089B08E46617328D040685F
:104B700023684FEACC0103602268506037480B5825
:104B80000A189A4218BF364942D04FEACE0212188C
:104B9000536822606360536854601C60012303FA09
:104BA0000EF30A882F4D13430B802B68A34248D085
:104BB0005B7B9E452AD22C4B2C60186809B030BD17
:104BC00003F078031F2B21D9436958688268136862
:104BD00013F0010F1AD0636822681A602168026816
:104BE0004B609042014694F80DE003D106E0126854
:104BF000904203D0537B9E45F9D211464B68216009
:104C000063604B6800201C604C60D7E70020D5E74C
:104C100053689A420CD0154A02230292144A009318
:104C200000208533694603930492FEF779FBFEE783
:104C3000012303FA0CF30A49DB430A8813400B8073
:104C4000A3E7F445E2D8FFF7C7FE84422860DDD031
:104C5000054B1A68101E18BF0120AFE7E8100020AE
:104C60006C110020E0100020681100204470000842
:104C70005870000841F27813C2F200030020186057
:104C800041F27C1241F28013C2F200020121C2F211
:104C90000003116018607047012870B5044627D9D9
:104CA000144B4FEA500E144E0EF1FF301D6856F8AB
:104CB0003030C5EB010C5B1B63450BD818E04FEAA5
:104CC0005E010D4A481E52F8303074465B1B634546
:104CD0000DD98E46621EC300D20092199B19BEF1F7
:104CE000010F93E8030082E803000C60E7D87446E4
:104CF000204670BD7811002088100020F0B51C4BB4
:104D00004FEA400E1D68044675452FD3194B1A4EC5
:104D10001F68C7EB010C16E00EF1FF3156F8312089
:104D2000D21B944522D9CB00621E9B1993E8030045
:104D3000D2004FEA4E039219AB4282E803000C60A6
:104D4000744613D89E460EF10100A842E4D80EF135
:104D5000FF3156F8312056F83E30D21BDB1B934210
:104D60003EBF1A46714686469445DCD82046F0BDC3
:104D700080110020781100208810002070B541F2C9
:104D80008013C2F20003044618680D460130186013
:104D9000FFF782FF41F28803421EC2F2000343F88C
:104DA0003250D200D2185460206070BD2DE9F0411D
:104DB0001C4F1D4E3B680468013B56F833503B6066
:104DC000EBB1012C0BD9194B4FEA540E0EF1FF3009
:104DD000196856F830306A1A5B1A9A4211D3204685
:104DE0002946FFF78BFF04463B68621ED200DB00BA
:104DF00092199B1993E8030082E803000C60BDE858
:104E0000F081621EC300D20092199B1993E803003F
:104E100082E803000C6070462946FFF73DFF044618
:104E2000E2E7C046801100208810002078110020A1
:104E300010B40368084ADB009B180849084A53F875
:104E4000084C08681368E21AC31A9A4202D9201A59
:104E500010BC70470020FBE7881000207C11002068
:104E6000781100202DE9F04F89B0EFF3148313F08F
:104E7000020F40F0878041F2DC04C2F20004236894
:104E8000002B71D1EFF31182531E0F2B02D9102387
:104E900083F31188DFF820B10123CBF8002041F221
:104EA000DC02C2F200021360DFF810A1DAF80000A1
:104EB000002875D0DFF8089141F27C133A4FC2F216
:104EC0000003D9F800101A683B68521A5B1A9A421C
:104ED00012D233E0A8686B689847D8F8000068B32E
:104EE00041F27C14C2F20004D9F800103268236841
:104EF000521A5B1A9A4221D8431E7D6857F8331024
:104F0000294EDFF8B880CAF80030002BE2D001202B
:104F1000FFF7F4FED8F80030421ED200DB009219F1
:104F20009B19044693E8030082E803000C60A8681C
:104F30006B689847D8F800000028D1D141F27C1264
:104F4000C2F200021368C9F800300133136041F265
:104F5000DC030022C2F200031A60DBF8003083F3A6
:104F6000118809B0BDE8F08F104A02230292104A5E
:104F70000093002003F5AF73694603930492FEF794
:104F8000CFF9FEE7094A022302920A4A0093002061
:104F900040F25F13694603930492FEF7C1F9FEE7FE
:104FA000DFF81C90CAE7C046881000207470000823
:104FB0009C7000088C700008D81000208011002020
:104FC0007811002030B4EFF3148313F0020F03D1F3
:104FD0006FF0180030BC7047154D2B68002BF7D1CF
:104FE000002821DD134B1A6890421ADC124B420153
:104FF000D418EFF31182531E0F2B02D9102383F321
:1050000011880E4901230A602B60A37B03F0010085
:105010006FF30003A37300222A600B6883F31188E7
:10502000D8E76FF01100D5E7FBD1054B1C68E0E72E
:10503000DC100020CC6B000878100020D810002075
:105040007411002070B40446EFF3148313F0020FC0
:1050500003D16FF0180070BC70470D4E3568002DFD
:10506000F7D1EFF31182531E0F2B02D9102383F3D4
:1050700011880848012302603360074B1A68916861
:105080004B6823603560036883F311882846E2E7A4
:10509000DC100020D81000207411002030B4EFF391
:1050A000148313F0020F03D16FF0180030BC704767
:1050B000174C2368002BF7D1002824DD154B1A6804
:1050C00090421DDC144B4201D018EFF31182531EA5
:1050D0000F2B02D9102383F31188104D01232A606E
:1050E0002360037B3BB96FF02800002222602B680D
:1050F00083F31188DAE7437B002001330B60F4E788
:105100006FF01100D2E7FBD1054B1868DDE7C04610
:10511000DC100020CC6B000878100020D810002094
:10512000741100202DE9F041EFF3148313F0020F06
:1051300003D06FF01800BDE8F0811B4C2368002BF2
:10514000F7D1002802DC6FF01100F4E7174B1A6862
:105150009042F8DC164A43019818EFF31182531E6F
:105160000F2B02D9102383F31188124F01263A60C6
:105170002660057B7DB1837B13F0010205BF43F000
:10518000010383736FF02A001046002222603B68FF
:1051900083F31188CFE7FFF733FB0028F5D0064BE8
:1051A00028461E60F1E7C046DC100020CC6B0008EA
:1051B00078100020D8100020E410002070B5EFF324
:1051C000148313F0020F02D16FF0180070BD1D4D53
:1051D0002B68002BF8D1002827DD1B4B1A68904262
:1051E00020DC1A4B4201D018EFF311814B1E0F2B1C
:1051F00002D9102383F31188154E012331602B60EF
:10520000047BB4B1837B13F0010205BF43F00103BB
:1052100083736FF02A00104600222A60336883F3FC
:105220001188D3E76FF01100D0E7FBD1094B186864
:10523000DAE7FFF7E5FA0028EED0FEF745FF204653
:10524000EAE7C046DC100020CC6B00087810002094
:10525000D81000207411002070B5EFF3148313F000
:10526000020F02D16FF0180070BD1E4C2368002B96
:10527000F8D1002825DD1C4B1A68904222DC102949
:1052800088BF6FF01000EFD808B3184B4201D01858
:10529000D9B98368D968EFF31182531E0F2B02D955
:1052A000102383F31188124D01232A602360037BAE
:1052B00083B96FF02800002222602B6883F31188E5
:1052C000D2E7DCD06FF01100CEE70139E3E7094BFC
:1052D0001868DDE7FFF740FC0028ECD0FEF7F4FE8D
:1052E0000020E8E7DC100020CC6B000878100020DC
:1052F000D81000207411002070B5EFF3148313F060
:10530000020F02D16FF0180070BD2D4C2368002BE6
:10531000F8D1002802DC6FF01100F5E7294B1A687C
:105320009042F8DC284B294940011A6845189542FB
:1053300008BF6FF01B00E7D0EFF31182531E0F2B55
:1053400002D9102383F31188214E01233260236098
:105350002B7B3BB96FF0280000222260336883F377
:105360001188D1E713F0010F1AD113F0020F0ED0FC
:1053700003F078030F2B81BF6B6842581A604158C5
:1053800088BF4B606B69186808B1FFF70FFD2846AE
:10539000FFF728FAAB7B13F0010F05D10020DBE704
:1053A0002846FFF74DFBF2E76FF30003AB73284687
:1053B000FFF726FA0028F1D0FEF786FE0020CBE7A3
:1053C000DC100020CC6B0008741100207810002045
:1053D000D810002010B5EFF3148313F0020F02D1A0
:1053E0006FF0180010BD20490B685BB9EFF3118214
:1053F000531E0F2B02D9102383F311881B4B1A6005
:1054000001220A601A4A13680BB1002313600B686B
:1054100033BBEFF31183DAB24AB11309102B06D074
:105420000B6813B1114A0023136083F31188114BE9
:10543000114C01221A602068FFF702FB2068FFF779
:10544000D1F92268937B13F0010F01D1FEF7F2FE30
:105450006FF3000393732068FFF7D2F9FEF7EAFEBB
:10546000024B1A68D2B2D7E7DC100020D810002017
:1054700070110020681100207411002070B5EFF346
:10548000148313F0020F02D16FF0180070BD184D95
:105490002C68002CF8D1002802DC6FF01100F5E731
:1054A000144B1A689042F8DC134A43019818EFF342
:1054B0001182531E0F2B02D9102383F311880F4E34
:1054C000012332602B60037B13F0020F08BF6FF0E3
:1054D000280005D100222A60336883F31188D5E7BC
:1054E00001F01CFA0028F5D0FEF7EEFD2046F1E7AA
:1054F000DC100020CC6B000878100020D8100020B1
:1055000030B4EFF3148313F0020F03D16FF01800DF
:1055100030BC7047184C2368002BF7D1002827DDDA
:10552000164B1A68904220DC154B4201D118EFF35C
:105530001182531E0F2B02D9102383F31188114DB2
:1055400001232A6023600B7B3BB96FF02800002207
:1055500022602B6883F31188DAE78B7B5A086FF39C
:10556000410302F001008B73F1E76FF01100CFE708
:10557000FBD1054B1968DAE7DC100020CC6B000882
:1055800078100020D81000207411002070B5EFF3BF
:10559000148313F0020F02D06FF0180070BD1F4C7F
:1055A0002368002BF8D1002802DC6FF01100F5E72A
:1055B0001B4B1A689042F8DC1A4A43019918EFF322
:1055C0001182531E0F2B02D9102383F31188164E1C
:1055D0000125326025600B7B3BB96FF0280000226B
:1055E0002260336883F31188D8E703F07803082B2F
:1055F0000BD08A7B02F00203D8B218B942F0020342
:105600008B73ECE76FF02A00E9E7084601F00CF92C
:105610000028E4D0054B00201D60E0E7DC100020EE
:10562000CC6B000878100020D8100020E410002077
:1056300070B5EFF3148313F0020F02D16FF018006E
:1056400070BD214C2368002BF8D100282BDD1F4BA7
:105650001A68904224DC1E4B4201D018EFF31181EE
:105660004B1E0F2B02D9102383F31188194D0123F0
:1056700029602360037B3BB96FF028000022226081
:105680002B6883F31188DBE703F07803082B13D032
:10569000827B02F00203D9B249B16FF02A00EDE734
:1056A0006FF01100CCE7FBD10B4B1868D6E742F046
:1056B000020383730846E1E701F0B6F80028DDD065
:1056C000FEF702FD0020D9E7DC100020CC6B0008BB
:1056D00078100020D81000207411002070B5044606
:1056E00084B0EFF3148313F0020F03D16FF01800AE
:1056F00004B070BD1B4D28680028F7D11A4B1A68FA
:10570000002AF3D0B4F1FF3F1EDBEFF31182531EEA
:105710000F2B02D9102383F31188144E012332601A
:105720002B60134B1A68937B13F0020F1CBF60F3BE
:105730004103937302D14CB96FF0310000222A600B
:10574000336883F31188D3E71138D1E70A23137341
:1057500003A86946224600F081FFFEF7B5FC0398D6
:10576000ECE7C046DC10002068110020D8100020B3
:10577000741100202DE9F041064684B0EFF3148344
:1057800013F0020F04D16FF0180004B0BDE8F081EF
:105790001C4D2F68002FF6D11B4B1A68002AF2D03F
:1057A0000028B8BF6FF01000EFDBEFF31182531E3B
:1057B0000F2B02D9102383F31188DFF85C800123BB
:1057C000C8F800202B60114CDB1822681373206886
:1057D000FFF736F9226803AB53610D4B2268019342
:1057E0000C4B6846196802927118CDF80CD0FFF77F
:1057F000C5FAFEF769FC03982F60D8F8003083F3F0
:105800001188C2E7DC10002068110020741100200C
:105810008D6900087C110020D8100020F0B583B0FD
:10582000EFF3148313F0020F03D16FF0180003B0ED
:10583000F0BD194C20680028F7D1184B1A68002ACF
:10584000F3D0EFF31182531E0F2B02D9102383F3F1
:105850001188134F01233A602360124D2A68917B0F
:1058600001F00203DEB24EB10B4660F341039373C5
:10587000002222603B6883F31188D8E70A23137360
:105880002868FFF7DDF82A6801AB53610196FEF73F
:105890001BFC0198ECE7C046DC10002068110020DA
:1058A000D81000207411002070B5EFF3148313F0AA
:1058B000020F02D16FF0180070BD1C4C2168002946
:1058C000F8D1002802DC6FF01100F5E7184B1A68D8
:1058D0009042F8DC174A43019818EFF31182531EE7
:1058E0000F2B02D9102383F31188134E012332604A
:1058F0002360037B13F0040F08BF6FF0280007D06C
:1059000013F002051EBF23F004030373084605D0FD
:1059100000222260336883F31188CDE7FEF738FF59
:105920000028F5D0FEF7D0FB2846F1E7DC10002078
:10593000CC6B000878100020D810002070B5EFF371
:10594000148313F0020F02D16FF0180070BD264CC3
:105950002368002BF8D1002830DD244B1A689042D0
:105960001CDC234B42012349D018EFF31182531E54
:105970000F2B02D9102383F311881F4D01232A60B6
:1059800023600B6898421DD0037B53B96FF0280049
:10599000002222602B6883F31188D7E76FF0110093
:1059A000D4E713F0010F14D113F0040205BF43F044
:1059B000040303736FF02A001046E9E7EED10D49A6
:1059C0000868D2E70D4B1A68002ADDD16FF0180085
:1059D000DEE704230373FFF733F80028D8D0FEF77F
:1059E00073FB0020D4E7C046DC100020CC6B00081D
:1059F0007810002074110020D810002068110020B9
:105A000070B5EFF3148313F0020F02D06FF018009B
:105A100070BD184C2368002BF8D1002802DC6FF011
:105A20001100F5E7144B1A689042F8DC134A430161
:105A30009818EFF31182531E0F2B02D9102383F312
:105A400011880F4E012532602560037B13F0020F91
:105A500008BF6FF0280005D100222260336883F36D
:105A60001188D5E700F05AFF0028F5D0054B00203B
:105A70001D60F1E7DC100020CC6B000878100020DE
:105A8000D8100020E4100020094B10B41C6864B149
:105A90000849094A00209160126052604B68013049
:105AA000D3600C311032A042F5D110BC7047C04613
:105AB000186C00081C6C000868100020F0B589B054
:105AC000EFF3148313F0020F03D16FF0180009B045
:105AD000F0BD214D2C68002CF7D1002802DC6FF0BE
:105AE0001100F4E71D4B1A689042F8DC1C4F0001CE
:105AF000C619EFF31182531E0F2B02D9102383F323
:105B00001188DFF86CE00123CEF800202B60C0592B
:105B1000B0420ED0134BC31A5B11581C0860F368D7
:105B20004B6000222A60DEF8003083F311881046B3
:105B3000CDE7436898420CD00B4A022302920B4AED
:105B4000009320468533694603930492FDF7E8FBF2
:105B5000FEE72046E2E7C046DC100020186C000893
:105B60005810002098100020447000085870000859
:105B7000D81000202DE9F041EFF3148313F0020F49
:105B800003D16FF01800BDE8F081164D2C68002C91
:105B9000F7D1002802DC6FF01100F4E7124B1A680D
:105BA0009042F8DC114A03019E18EFF31182531E54
:105BB0000F2B02D9102383F311880D4F01233A6074
:105BC0002B60304600F05CFEB3685A68F26028B97A
:105BD0002C603B6883F311882046D4E7FEF774FA03
:105BE000F6E7C046DC100020186C000858100020B2
:105BF000D810002070B50C4686B0EFF3148313F074
:105C0000020F03D16FF0180006B070BD204D296857
:105C10000029F7D11F4B1A68002AF3D0002802DCB4
:105C20006FF01100F0E71C4B1A689042F8DCB4F1F9
:105C3000FF3FB8BF6FF01000E6DB184A0301981869
:105C4000EFF31182531E0F2B02D9102383F3118817
:105C5000134E012332602B60C36843B1013BC36024
:105C6000084600222A60336883F31188CCE714B910
:105C70006FF03100F5E70B4B2222196823460A73B7
:105C800004A901AA00F022FDFEF71EFA0498E8E735
:105C9000DC10002068110020186C0008581000204B
:105CA000D81000207411002030B4EFF3148313F0E7
:105CB000020F03D16FF0180030BC7047144C2168FC
:105CC0000029F7D1002802DC6FF01100F4E7114B36
:105CD0001A689042F8DC104A03019818EFF3118219
:105CE000531E0F2B02D9102383F311880B4D012370
:105CF0002A602360C3683BB96FF031000022226044
:105D00002B6883F31188D7E7013BC3600846F5E7AA
:105D1000DC100020186C000858100020D81000205B
:105D200030B583B0EFF3148313F0020F03D16FF09B
:105D3000180003B030BD1B4C21680029F7D11A4B65
:105D40001A68002AF3D0002802DC6FF01100F0E797
:105D5000164B1A689042F8DC154A03019818EFF3C5
:105D60001182531E0F2B02D9102383F31188114D7A
:105D700001232A602360C36843B1013BC360084626
:105D8000002222602B6883F31188D2E70A4B22227B
:105D900019680A73694600F017FDFEF795F9009837
:105DA000EEE7C046DC10002068110020186C0008E7
:105DB00058100020D8100020741100202DE9F04167
:105DC00088B0EFF3148313F0020F04D06FF01800C3
:105DD00008B0BDE8F081274C2368002BF6D10028DD
:105DE00002DC6FF01100F3E7234B1A689042F8DCF5
:105DF000224D02015619EFF311814B1E0F2B02D9D0
:105E0000102383F31188DFF884800127C8F800107D
:105E100027605059B04210D0036853510268566051
:105E200000F002FD10B1164B00201F60002222601E
:105E3000D8F8003083F31188CAE7436898420CD041
:105E4000104A02230292104A0093002085336946CB
:105E500003930492FDF764FAFEE78368C1689A68C9
:105E6000914228BF6FF02A00E0D24B1CC360002093
:105E7000DCE7C046DC100020186C00085810002039
:105E8000E41000204470000858700008D81000206A
:105E90002DE9F04188B0EFF3148313F0020F04D121
:105EA0006FF0180008B0BDE8F081274D2C68002C79
:105EB000F6D1002802DC6FF01100F3E7234B1A68DB
:105EC0009042F8DC224E02019719EFF311814B1E2C
:105ED0000F2B02D9102383F31188DFF88080012370
:105EE000C8F800102B609059B8420DD00368935148
:105EF0000268576000F098FC10BB00222A60D8F8B6
:105F0000003083F31188CDE7436898420CD0114AE2
:105F100002230292104A0093204685336946039378
:105F20000492FDF7FDF9FEE78368C1689A68914223
:105F300028BF6FF02A00E0D24B1CC3602046DCE78C
:105F4000FEF7C2F82046D8E7DC100020186C0008E5
:105F5000581000204470000858700008D810002025
:105F600041F27013C2F200031868704741F25803FF
:105F7000C2F200031868D0F1010038BF002070475A
:105F800041F2DC03C2F200031868003818BF012098
:105F90007047C046EFF3148313F0020F02D0064B94
:105FA0001A680AB101207047044B1A68D2F1010047
:105FB00038BF0020F7E7C046DC1000206811002041
:105FC000EFF3148313F0020F14BF00200120704779
:105FD000EFF3148313F0020118BF6FF0180008D11B
:105FE000044B186828B1044A1960136883F31188B8
:105FF00008467047DC100020D8100020EFF314830F
:1060000013F0020F08BF6FF0180009D0054B186895
:1060100030B10021044A1960136883F311880846DF
:106020007047C046DC100020D810002070B5EFF398
:10603000148313F0020F02D06FF0180070BD114AE4
:106040001368002BF8D101380F2888BF6FF01000BB
:10605000F4D8EFF311814B1E0F2B02D9102383F3D9
:106060001188094C012521601560FEF735FD08B146
:10607000064B1D60034A00211160236883F31188D9
:106080000846DBE7DC100020D8100020E4100020D8
:1060900070B5EFF3148313F0020F02D16FF0180004
:1060A00070BD144C2368002BF8D1102888BF6FF006
:1060B0001000F5D8EFF31182531E0F2B02D91023D5
:1060C00083F311880C4D01232A60236060B90B4BC8
:1060D0001A68507BFEF700FD40B9002222602B6851
:1060E00083F311881046DBE70138F3E7FDF7ECFF97
:1060F000F3E7C046DC100020D81000207411002007
:1061000070B5EFF3148313F0020F02D16FF0180093
:1061100070BD184C21680029F8D1EFF31182531E8D
:106120000F2B02D9102383F31188134D01232A600A
:106130002360124B22681960C2B9EFF31183DBB2FE
:1061400013B11B09102B0AD10D4B012119600D4A07
:106150000D4B11681A68914201D0FDF7B5FF00227E
:1061600022602B6883F311881046D1E72B68DBB2DD
:10617000E6E7C046DC100020D81000207011002097
:106180006811002074110020E010002030B4EFF3FB
:10619000148313F0020F03D16FF0180030BC704766
:1061A0000C4D2C68002CF7D1EFF31182531E0F2BEE
:1061B00002D9102383F31188074801210260296066
:1061C000064B074A196014602C60036883F311883A
:1061D0002046E3E7DC100020D810002070110020DA
:1061E0006811002010B4EFF3148313F0020018BFFD
:1061F0006FF018000FD1094C216861B9EFF31182DB
:10620000531E0F2B02D9102383F31188044B1A60FD
:1062100001222260084610BC7047C046DC100020F6
:10622000D8100020EFF3148313F0020F08BF6FF0B3
:1062300018000ED00849086860B9EFF31182531EA8
:106240000F2B02D9102383F31188044B1A6001220B
:106250000A6070470020FCE7DC100020D810002006
:1062600010B4EFF3148313F0020F03D06FF0180093
:1062700010BC704710490B68002BF7D1EFF3118267
:10628000531E0F2B02D9102383F311880B4C0123CB
:1062900022600B600A4B1A685AB10A4BD31A5B1181
:1062A0000133036000220A60236883F311881046DB
:1062B000DEE71346F5E7C046DC100020D8100020CA
:1062C000741100209810002070B40446EFF314837A
:1062D00013F0020F03D16FF0180070BC70470E4E20
:1062E0003568002DF7D1EFF31182531E0F2B02D921
:1062F000102383F311880948012302603360084AA0
:10630000084913685B1A5B11013323603560036829
:1063100083F311882846E0E7DC100020D810002025
:106320007411002098100020094B70B51E686EB1E2
:10633000084C002554F80C0C54F8081C54F8042C94
:106340000135FEF783F90C34B542F3D170BDC04678
:106350006C6C00087C6C000830B58646EFF3148343
:1063600013F0020F08BF6FF0180000D130BDAEF17E
:106370000F032B2B88BF6FF01000F7D8204D2C682F
:106380005CB9EFF31182531E0F2B02D9102383F354
:1063900011881C4B1A6001222A600EF01F014FF079
:1063A000010C0CFA01F1184B4FEA5E1053F8202053
:1063B000114208BF6FF0280010D0BEF10F0F15D0AA
:1063C000AEF1100303F01F010CFA01F14EF20012BE
:1063D0005B09CEF2000242F823100020002CC5D148
:1063E000084A2C60136883F31188BFE74EF210024D
:1063F000CEF200021368002043F002031360EDE7C1
:10640000DC100020D8100020846D000810B4044671
:10641000EFF3148313F0020F08BF6FF018001ED0C3
:106420001349086858B9EFF31182531E0F2B02D994
:10643000102383F311880F4B1A6001220A600B6846
:106440007BB9EFF31183DAB212B11309A3F1100291
:10645000226050B9074A0860136883F3118810BCA2
:106460007047044B1A68D2B2EEE70020F7E7C04647
:10647000DC100020D810002030B58646EFF31483DE
:1064800013F0020F08BF6FF0180000D130BDAEF15D
:106490000F032B2B88BF6FF01000F7D8204D2C680E
:1064A0005CB9EFF31182531E0F2B02D9102383F333
:1064B00011881C4B1A6001222A600EF01F014FF058
:1064C000010C0CFA01F1184B4FEA5E1053F8202032
:1064D000114208BF6FF028000FD0BEF10F0F14D08B
:1064E000AEF1100303F01F010CFA01F14EF280121D
:1064F0005B09CEF2000299500020002CC6D1094A57
:106500002C60136883F31188C0E74EF21002CEF2BC
:1065100000021368002023F002031360EDE7C04679
:10652000DC100020D8100020846D000870B5EFF357
:10653000148313F0020F08BF6FF0180000D170BD74
:1065400000F10F030F2B88BF6FF01000F7D81F4D1D
:106550002C685CB9EFF31182531E0F2B02D9102364
:1065600083F311881A4B1A6001222A60002826D171
:10657000014602462B6823B1154B1A600F2988BFCC
:10658000102282F3118850B1124B00221A60DCB93C
:106590000F4A2C60136883F311882046CFE70E4B17
:1065A0001A68002AF3D10B4B012119600B4A0C4BDE
:1065B00011681A689142EAD0FDF786FDE7E703010A
:1065C00003F0F0021146D5E70020B8E7DC10002008
:1065D000D8100020681100207011002074110020D4
:1065E000E0100020036813F0040F01D043680BB1E2
:1065F00001207047024B1A68101E18BF0120F8E7EF
:1066000070110020036813F0040F0ED040681028AA
:1066100009D9074B1B6843B19B7B9B0883F001039F
:1066200003F0010002E00028F3D001207047C046CB
:1066300074110020074B70B51E684EB1064D002442
:1066400055F80C0C0134FDF79BFF0C35B442F7D123
:1066500070BDC046886C0008A4100020F0B5164F2D
:10666000044689B0386816460D46FEF7E9F93B68DE
:10667000002E5C610CDD2560104B3A686B60104B9E
:10668000AA60196828467118FEF778FB09B0F0BDBA
:10669000B6F1FF3F0CD00B4A022302920A4A009344
:1066A00000204033694603930492FCF739FEFEE76D
:1066B00000232360EAE7C046741100202D6700081C
:1066C0007C110020AC700008C070000870B5044652
:1066D0000E46084611461A46FFF7C0FFA3681A681F
:1066E00012F0010F16D0104B22681868944225460C
:1066F000417B0AD16B68056043606B686860186015
:10670000746070BD12689442F4D0537B9942F9D200
:106710001546EFE7044B626819684A6063680C60CD
:1067200061601960ECE7C0467411002010B5037B6E
:1067300088B003F078030F2B84BF436802680446D7
:1067400082BF1A6001684B6042696FF031031360C9
:10675000037B13F0020120D013F0040F15D00423A3
:1067600003731449002314480B60036883F31188F2
:10677000EFF31182531E0F2B02D9102383F31188DC
:10678000012302600B6008B010BDFEF701F800287D
:10679000E7D00A4B01221A60E3E7094A022302927A
:1067A000084A009308465133694603930492FCF764
:1067B000B7FDFEE7DC100020D8100020E410002018
:1067C000AC700008D470000870B5164D04462868F7
:1067D0000E46FEF735F92B6800225E613260A36831
:1067E0001A6812F0010F15D02268286894422546D5
:1067F000417B0AD16B68056043606B686860186014
:10680000746070BD12689442F4D0537B9942F9D2FF
:106810001546EFE72B6862681C605A606268636027
:106820001360EDE77411002010B543690446186841
:1068300088B010B1FEF7BAFA636900201860237BB4
:1068400013F0020106D013F0040F10D004232373B9
:1068500008B010BD084A02230292084A0093084675
:106860005133694603930492FCF75AFDFEE7204634
:10687000FDF78EFFECE7C046AC700008D47000084E
:1068800070B5054688B000262C68A54218D023684C
:106890002B60226855606269106810B1FEF786FAB5
:1068A00062696FF032031360237B13F002001ED085
:1068B00013F0040F14D0042323732C68A542E6D1EF
:1068C0006B689D421FD0114A02230292104A009326
:1068D00000208533694603930492FCF721FDFEE70F
:1068E0002046FDF755FF0028CED00126CCE7094A07
:1068F00002230292084A009369465133039304929B
:10690000FCF70EFDFEE7304608B070BD447000088D
:1069100058700008AC700008D470000810B5037BF4
:10692000044603F078030F2B84BF4368026888B0E5
:1069300082BF1A6001684B604269106810B1FEF7AF
:1069400035FA62696FF030031360237B13F00200A5
:1069500007D013F0040F10D004232373002008B0D5
:1069600010BD084A02230292074A00936946513338
:1069700003930492FCF7D4FCFEE72046FDF708FFE2
:10698000EDE7C046AC700008D470000800B542695D
:1069900000231360037B89B013F0020E20D013F0A4
:1069A000040F15D0042303731449002314480B600B
:1069B000036883F31188EFF31182531E0F2B02D962
:1069C000102383F31188012302600B6009B000BD1E
:1069D000FDF7DEFE0028E7D00A4B01221A60E3E74C
:1069E000094A02230292094A0093704651336946CC
:1069F00003930492FCF794FCFEE7C046DC100020F1
:106A0000D8100020E4100020AC700008D4700008FA
:106A1000003801400A544F50504552532F415350B3
:106A2000204B65726E656C2052656C6561736520E4
:106A300025642E25582E256420666F722043512D23
:106A4000535441524D2853544D333246313033293B
:106A500020284E6F7620313220323030382C2032D0
:106A6000323A34303A3433290A436F7079726967A5
:106A700068742028432920323030302D32303033B2
:106A800020627920456D62656464656420616E648E
:106A9000205265616C2D54696D652053797374655E
:106AA0006D73204C61626F7261746F72790A20207D
:106AB00020202020202020202020202020202020D6
:106AC00020202020202020202020546F796F686112
:106AD00073686920556E69762E206F662054656351
:106AE000686E6F6C6F67792C204A4150414E0A43A3
:106AF0006F707972696768742028432920323030BA
:106B0000342D3230303820627920456D62656464FE
:106B1000656420616E64205265616C2D54696D65F9
:106B20002053797374656D73204C61626F72617468
:106B30006F72790A20202020202020202020202071
:106B40004772616475617465205363686F6F6C2070
:106B50006F6620496E666F726D6174696F6E205347
:106B60006369656E63652C204E61676F796120559E
:106B70006E69762E2C204A4150414E0A00000000DA
:106B8000010000000200000000010000500400208D
:106B900000010000500500203031323334353637E3
:106BA00038390000303132333435363738396162A4
:106BB00063646566000000003031323334353637A7
:106BC00038394142434445460000000002000000BD
:106BD0000200000001000000393B00080200000034
:106BE0000004000058060020000000000000000023
:106BF00002000000010000004D3100080900000003
:106C000000040000580A00200000000000000000FE
:106C1000010000000200000002000000010000006E
:106C20000000000001000000010000000100000061
:106C30000100000000000000000000000000000053
:106C40000000000000000000000000000000000044
:106C5000020000000F000000000000005544000882
:106C60003500000000000000BD40000802000000E8
:106C70000F00000001000000FAFFFFFF35000000D8
:106C800001000000FDFFFFFF000000000002000007
:106C9000580E0020581E0020F5440008F544000856
:106CA000F5440008F5440008F5440008F5440008E0
:106CB000F5440008F5440008F5440008F5440008D0
:106CC000F5440008F5440008F5440008F5440008C0
:106CD000F544000855440008094600080946000824
:106CE0000946000809460008094600080946000848
:106CF0000946000809460008094600080946000838
:106D00000946000809460008094600080946000827
:106D10000946000809460008094600080946000817
:106D20000946000809460008094600080946000807
:106D300009460008094600080946000809460008F7
:106D400009460008094600080946000809460008E7
:106D500009460008094600080946000809460008D7
:106D6000094600080946000809460008BD40000819
:106D700009460008094600080946000809460008B7
:106D8000094600080080000000002000000000000C
:106D9000000000000000000018ED00E01CED00E025
:106DA00020ED00E0000100020001000300010002EC
:106DB0000001000074657374203D202578000000F8
:106DC0002D2D206275666665726564206D6573732E
:106DD00061676573202D2D0A0000000053797374DC
:106DE000656D206C6F6767696E67207461736B20D7
:106DF00069732073746172746564206F6E20706FA4
:106E000072742025642E000025733A25753A2041BE
:106E10007373657274696F6E2060257327206661D5
:106E2000696C65642E0000002564206D65737361D4
:106E300067657320617265206C6F73742E000000AB
:106E400025732028256429207265706F727465642B
:106E5000206279206025732720696E206C696E6539
:106E6000202564206F6620602573272E0000000017
:106E7000455F424F56520000756E6B6E6F776E2005
:106E80006572726F72000000455F4F4B000000009A
:106E9000455F535953000000455F4E4F5350540017
:106EA000455F5253464E0000455F525341545200D5
:106EB000455F504152000000455F4944000000001A
:106EC000455F435458000000455F4D414356000064
:106ED000455F4F4143560000455F494C55534500BF
:106EE000455F4E4F4D454D00455F4E4F49440000B4
:106EF000455F4F424A000000455F4E4F45585300E2
:106F0000455F514F56520000455F524C5741490072
:106F1000455F544D4F555400455F444C54000000AC
:106F2000455F434C53000000455F57424C4B000007
:106F30000A556E7265676973746572656420457879
:106F400063657074696F6E206F63637572732E0072
:106F50004578636E6F203D202530387820504320DF
:106F60003D20253038782058505352203D20253080
:106F700038782062617365707269203D2025303851
:106F8000582C20705F657863696E66203D2025303F
:106F9000385800000A556E726567697374657265CA
:106FA0006420496E74657272757074206F636375C6
:106FB00072732E002E2E2F617263682F61726D5FC7
:106FC0006D5F6763632F7072635F636F6E6669677F
:106FD0002E63000056414C49445F494E544E4F5F6A
:106FE000434647494E5428696E746E6F290000006D
:106FF000544D494E5F494E54505249203C3D206902
:107000006E7470726920262620696E747072692011
:107010003C3D20544D41585F494E54505249000068
:107020002E2E2F6B65726E656C2F7461736B2E63E1
:10703000000000006269746D617020213D203055B0
:10704000000000002E2E2F696E636C7564652F7131
:10705000756575652E680000705F71756575652DC5
:107060003E705F70726576203D3D20705F71756582
:10707000756500002E2E2F6B65726E656C2F74691E
:107080006D655F6576656E742E63000073656E7363
:10709000655F636F6E7465787428290021695F737A
:1070A000656E73655F6C6F636B2829002E2E2F6BE6
:1070B00065726E656C2F776169742E630000000045
:1070C000746D6F7574203D3D20544D4F5F4645569D
:1070D0005200000054535441545F57414954494EA3
:1070E0004728705F7463622D3E7473746174290065
:0400000508003000BF
:00000001FF
