S00B00006A73702E73726563CC
S315080030002C15002011300008010000000100000006
S3150800301072B640F2FF0080F31188EFF3088080F360
S315080030200988EFF314800221084380F31488BFF35C
S315080030306F8F0F48884200D080470E480E490022FD
S31508003040884203D0027001308842FBD10B480C49F4
S315080030500C4A884205D00378137001300132884241
S31508003060F9D10948884200D080470848004700003F
S31508003070010000000000002030140020686C0008E1
S31508003080686C0008000000200100000001470008E5
S3150800309010B5092002F04EFC0A2002F04BFC0B206A
S315080030A002F048FC10BDC04630B504460D4683B054
S315080030B005200F492A46234601F05EF900230193AD
S315080030C00C4B019A19688A4205D2019B0133019378
S315080030D0019A8A42F9D314F4004F06D006492A46C3
S315080030E0062001F049F901F06BFE03B030BDC04679
S315080030F040610008380E00206461000870B501219F
S315080031008CB004467F2001F0D5FD05209C49224657
S3150800311001F032F901204FF4A26100F0A9FC002861
S31508003120C0F2F782974C44F24023C0F20F032360A3
S3150800313008A802F0C7FA00230A930A9A21688A4265
S3150800314005D20A9B01330A930A9A8A42F9D307A839
S3150800315002F0B8FA089B079948F20042C91AC1F268
S31508003160D7724CF6CD43B2FBF1F2CCF6CC432260D3
S31508003170A3FB0212844B92081A60012001F0B8FDE5
S31508003180022001F0B5FD032001F0B2FD0124254619
S315080031900DF12F0601203146024600F0C1FD002838
S315080031A078DB9DF82F20A2F13103492B5FD8DFE8A1
S315080031B013F0AD02AA02A7025E005E005E005E0082
S315080031C05E005E005E005E008F024D0235025E0004
S315080031D05E0016025E0004025E005E005E00E30109
S315080031E05E005E005E005E005E00CD015E005E0071
S315080031F05E005E005E00BC015E005E004A009D0146
S315080032008601BC01BC015E005E005E005E005E00D9
S315080032105E0070015E005E01BC01BC015E005E00DE
S315080032205E005E005E005E00480132015E005E00E0
S315080032305E001F010301BC01D200BD00AA00950073
S315080032407A00BC01BC0104A802F058FA0028C0F2B2
S31508003250958202A802F052FA0028C0F29882049ACF
S3150800326005204A49029B01F087F89DF82F20B2F104
S31508003270510318BF0123032A0CBF002303F00103DF
S31508003280002B87D14249052001F076F801F050FA63
S315080032900CB070BD00903F4903204FF490723E4B2E
S315080032A001F0D2F87DE706203C49224601F064F891
S315080032B00121284602F07EF80028C0F254829DF8C3
S315080032C02F20B2F1510318BF0123032A0CBF002394
S315080032D003F00103002B7FF45DAFD3E706203049E6
S315080032E0224601F049F8284601F0E8FE0028E6DA09
S315080032F000904FF4AF72032026492A4B01F0A4F838
S315080033009DF82F20B3E77F20012101F0D3FC9DF81B
S315080033102F20B2F1510318BF0123032A0CBF002343
S3150800332003F00103002B7FF435AFABE706201E49F7
S31508003330224601F021F8284601F06EFF0028BEDA81
S3150800334000904FF4B77203201249184B01F07CF82D
S315080033509DF82F208BE706201549224601F00CF828
S31508003360284601F069FD0028A9DA00904FF4A372F7
S31508003370032008490F4B01F067F89DF82F2076E7E0
S3150800338074610008400E0020380E0020BC64000856
S31508003390D864000898610008EC6100081864000801
S315080033A03863000848630008B8630008C863000863
S315080033B07062000880620008B049062000F0DCFF51
S315080033C0092002F091FA0A2002F08EFA0B2002F088
S315080033D08BFA9DF82F20B2F1510318BF0123032A57
S315080033E00CBF002303F00103002B7FF4D3AE49E79B
S315080033F03F20012101F05EFC9DF82F20B2F1510318
S3150800340018BF0123032A0CBF002303F00103002B76
S315080034107FF4C0AE36E706209949224600F0ACFF95
S31508003420284601F04DFF0028BFF649AF00904FF43B
S31508003430B97203209349944B01F006F89DF82F20A2
S3150800344015E706209149224600F096FF284601F026
S31508003450B1FE0028BFF633AF00904FF4B5720320D3
S3150800346088498B4B00F0F0FF9DF82F20FFE60120DE
S3150800347002F0C6F99DF82F20B2F1510318BF0123B7
S31508003480032A0CBF002303F00103002B7FF482AE4E
S31508003490F8E606207F49224600F06EFF284601F02E
S315080034A027FC0028BFF60BAF00904FF49D7203204F
S315080034B07449794B00F0C8FF9DF82F20D7E60620FF
S315080034C07649224600F058FF0221284601F072FF8D
S315080034D00028BFF6F4AE00904FF4BF720320694986
S315080034E06F4B00F0B1FF9DF82F20C0E606206D490E
S315080034F0224600F041FF284601F028FE031EC0F2CE
S31508003500118122460520684900F036FF9DF82F20D4
S31508003510B2F1510318BF0123032A0CBF002303F09D
S315080035200103002B7FF436AEACE6604BE31803F8D4
S31508003530012CB2F1510318BF0123032A0CBF002343
S3150800354003F00103002B7FF425AE9BE606205849BD
S31508003550224600F011FF284601F0ECFE0028BFF6CF
S31508003560AEAE00904FF4BB7203204649514B00F0B3
S315080035706BFF9DF82F207AE606204F49224600F079
S31508003580FBFE284609A901F0F9FC0028C0F2E080F4
S315080035902246099B0520494900F0EEFE9DF82F209A
S315080035A0B2F1510318BF0123032A0CBF002303F00D
S315080035B00103002B7FF4EEAD64E6012002F058F912
S315080035C09DF82F20B2F1510318BF0123032A0CBF1F
S315080035D0002303F00103002B7FF4DCAD52E606203E
S315080035E03749224600F0C8FE284601F0BDFB031EF7
S315080035F0C0F2A38022460520324900F0BDFE9DF8A0
S315080036002F20B2F1510318BF0123032A0CBF002350
S3150800361003F00103002B7FF4BDAD33E622462A49A9
S31508003620062000F0A9FE2846092101F055FC9DF860
S315080036302F20B2F1510318BF0123032A0CBF002320
S3150800364003F00103002B7FF4A5AD1BE622461F49B4
S31508003650062000F091FE28460A2101F03DFC9DF85F
S315080036602F20B2F1510318BF0123032A0CBF0023F0
S3150800367003F00103002B7FF48DAD03E678640008A0
S31508003680D863000898610008E86300089863000892
S31508003690A863000810620008206200084864000851
S315080036A06064000858630008806300083C0E002028
S315080036B0F863000808640008E46200081C63000850
S315080036C0306200085862000890620008AC62000880
S315080036D022463349062000F04FFE28460B2101F00A
S315080036E0FBFB9DF82F20B2F1510318BF0123032AD3
S315080036F00CBF002303F00103002B7FF44BADC1E59B
S315080037000324254646E50224254643E501242546A5
S3150800371040E500902349032040F20912224B00F0AD
S3150800372093FEFFE400934FF4B17203201D491F4B2B
S3150800373000F08AFE9DF82F2099E500934FF49F72BA
S31508003740032018491A4B00F07FFE9DF82F208EE5BE
S3150800375000904FF4AB7203201249164B00F074FE2A
S315080037609DF82F2083E500904FF4BD7203200D4984
S31508003770114B00F069FE9DF82F2078E50090094965
S3150800378003204FF4C7720D4B00F05EFE61E5009012
S315080037900449032040F28F12094B00F055FE5EE5FE
S315080037A0C862000898610008A461000868630008F8
S315080037B040620008FC62000830640008946400084F
S315080037C0A86400082DE9F043734B87B0054602ACA0
S315080037D093E8070084E807006C1E01F051FEA30079
S315080037E006AA9B1853F8107CDFF8E491DFF8E48109
S315080037F000260136052069492A463346009700F017
S31508003800BBFD00230593059AD9F80010914205D906
S31508003810059B01330593059A8A42F9D318F80430B3
S315080038200022533B08F80420262BE2D801A252F8BE
S3150800383023F0C0464D390008F3370008F33700086F
S31508003840F3370008F3370008F3370008293900086A
S31508003850F3370008F3370008F3370008F337000892
S31508003860F3370008F3370008F3370008F337000882
S31508003870F3370008F337000801390008D138000883
S31508003880F3370008F3370008F3370008F337000862
S31508003890F3370008F3370008F3370008F337000852
S315080038A0F3370008F3370008F3370008F337000842
S315080038B0F3370008DF380008F3370008F337000845
S315080038C0F3370008F3370008F3370008753900089E
S315080038D033492A46062000F04FFD01F071FA06200A
S315080038E030492A4600F048FD01F078FB002880DAC6
S315080038F000902D4903208B222C4B00F0A5FD78E77C
S3150800390006202B492A4600F037FD42F2107001F0D6
S3150800391015FD0028BFF66DAF0090234903209322BA
S31508003920244B00F091FD64E7062023492A4600F05F
S3150800393023FD01F0A5FD0028BFF65BAF00901A49EC
S3150800394003209B221D4B00F07FFD52E706201C49F1
S315080039502A4600F011FD42F2107001F073FB0028B0
S31508003960BFF647AF0090104903208F22154B00F091
S315080039706BFD3EE7062014492A4600F0FDFC01F0DF
S315080039805FFD0028BFF635AF009007490320972250
S315080039900E4B00F059FD2CE734610008F06400086E
S315080039A0646100081065000898610008146500083D
S315080039B03465000838650008586500085C65000825
S315080039C02065000824650008486500084C6500085D
S315080039D0400E00203C0E00204EF21000CEF20000F1
S315080039E0002303604EF2140241F63F13CEF20002A2
S315080039F0C0F2010307211360016070474EF21003FD
S31508003A00CEF2000300221A607047C04600B583B0A4
S31508003A1001F012F8002801DB03B000BD009003494D
S31508003A2000203F22024B00F00FFDF5E778650008FD
S31508003A308C65000870B50D46044601F0BDFF0146C9
S31508003A4010B16FF0180070BD012C18BF6FF011008F
S31508003A50F9D1064A93682BB1936908462B60D26A56
S31508003A606A60F0E76FF02800EDE7C0460000002026
S31508003A7070B504460D4601F09FFF024610B16FF07F
S31508003A80180070BD012C18BF6FF01100F9D1044958
S31508003A908B6813B1CD601046F3E76FF02800F0E7A6
S31508003AA00000002010B500F089FE40F2000346F23F
S31508003AB09852C2F20003C0F6000200211A6099600B
S31508003AC010BDC04670B582B0054601F075FF0446C4
S31508003AD020B16FF01804204602B070BD012D18BF42
S31508003AE06FF01104F7D101F045FF0028164E22DBCE
S31508003AF0B4686CB16FF0280401F04CFF0028EADACC
S31508003B00009012490020BC22114B00F09DFCE2E710
S31508003B1040F2115320460221F36074613461B461A6
S31508003B2034773462B4627462F4623463746000F0A9
S31508003B3071FEB560E0E70090044920469B22054BDC
S31508003B4000F082FCD4E7C04600000020A06500080B
S31508003B50C0650008B465000830B5017F83B0044627
S31508003B6049B9056B0DB9C36A5BB96068012100F0F4
S31508003B708BFE03B030BD406800F034FE0023237787
S31508003B80F7E7436AC31893F83411406800F02AFE31
S31508003B90636A0133B3F5807F08BF00236362E36A73
S31508003BA0B3F5807F02D0013BE362E2E723685868F9
S31508003BB001F0FCFC0028A8BFE36AF4DA0090044B85
S31508003BC02846044940F2C91200F03EFCE36AEAE7D7
S31508003BD0CC650008A065000830B583B0044601F03E
S31508003BE0EBFE054620B16FF01804204603B030BD41
S31508003BF0012C18BF6FF01104F7D101F0BBFE0028A5
S31508003C000E4C12DBA3686BB96FF0280401F0C2FEF4
S31508003C100028EADA00900A490020DD22094B00F064
S31508003C2013FCE2E7A5602C46F0E700900449284615
S31508003C30D122054B00F008FCE4E7C046000000204E
S31508003C40A0650008C0650008B465000870B50A29B3
S31508003C5082B004460E4622D001F08CFE002848DBCE
S31508003C60E56A15B9236B002B30D0A36AE218013335
S31508003C70B3F5807FA36204BFA3F58073A3626B1CB0
S31508003C80E36282F83461B3F5807F14BF002401240F
S31508003C9001F080FE002823DB204602B070BDC36811
S31508003CA013F0100FD8D00D21FFF7D0FF0028D3D07E
S31508003CB02368586801F0D0FC0028CDDA0090144932
S31508003CC00020FD22134B00F0BFFBC5E760683146B4
S31508003CD000F088FDB0B101F05DFE00282C46DBDA65
S31508003CE000900B49002040F213120B4B00F0ACFB7E
S31508003CF0D2E700900649002040F20112074B00F077
S31508003D00A3FBADE76068012100F084FDE56AACE736
S31508003D10A0650008F0650008C0650008B4650008DD
S31508003D202DE9F04383B0154604460E4601F04CFED5
S31508003D30024620B16FF0180003B0BDE8F083012CED
S31508003D4018BF6FF01100F7D1514FBB68002B00F078
S31508003D509380002D32D0A1469046B9F1000F3FD18D
S31508003D6001F008FE00287EDB3B69FB1893F8342037
S31508003D7008F806203B690133B3F5807F3B6104BF31
S31508003D80A3F580733B61BB695A1E3B6ABA61D2F1DF
S31508003D90010938BF4FF000090BB1802A4CD901F050
S31508003DA0F9FD002856DBFB6813F0010F27D108F14F
S31508003DB00108A845D1D1B9F1000F01D02846BBE7C3
S31508003DC03B68186801F09EFB0028F7DA0090314935
S31508003DD0484640F27B12304B00F036FB2846ABE7EC
S31508003DE03B68186801F038FC0028B9DA00902949C0
S31508003DF000204FF4BB72294B00F026FBB0E73B6866
S31508003E00586801F029FC002839DB214818F8061003
S31508003E10FFF71CFF04460028C9D13B68586801F023
S31508003E2071FB0028C3DA00901A4920464FF4AD7298
S31508003E301B4B00F009FBBAE77868112100F0D2FCA9
S31508003E4028B97868012100F0E5FC11233B770023A7
S31508003E503B62A4E700900F4900204FF4A972114B6A
S31508003E6000F0F2FA9FE700900A49002040F23F125C
S31508003E700D4B00F0E9FA77E76FF028005CE7009051
S31508003E80044900204FF4AC72084B00F0DDFABCE799
S31508003E9000000020A06500085C660008146600089B
S31508003EA038660008C0650008B4650008F0650008B3
S31508003EB02DE9F04182B0164604460D4601F084FD10
S31508003EC0024620B16FF0180002B0BDE8F081012C5F
S31508003ED018BF6FF01100F7D1DFF86C80D8F80830FA
S31508003EE033B31EB31746D8F80030586801F0B4FB50
S31508003EF0002820DB14482978FFF7A8FE0137BE42C0
S31508003F00044603D90135002CF4D0ECE770B9D8F88B
S31508003F100030586801F0F6FA002807DA00900B49D5
S31508003F2020464FF499720A4B00F08EFA3046CBE7DA
S31508003F306FF02800C8E700900449002040F22D12CF
S31508003F40044B00F081FAD5E700000020A0650008C0
S31508003F5038660008F065000830B5044683B0406846
S31508003F6000F04AFCE168C0B20B0A03F0010213280C
S31508003F7014BF002502F001051DB10123236303B018
S31508003F8030BD236B002B2CD1112814BF002302F05F
S31508003F900103002BF3D1A569B5F5807FEFD06369DE
S31508003FA0E2180133B3F5807F636108BFA3F5807318
S31508003FB082F8340008BF6361002D32D0681C11F402
S31508003FC0806FA061DBD0236A002BD8D1BF28D6D951
S31508003FD06068132100F006FC002842D00123236202
S31508003FE0CDE7112802D011F4007FD4D0E36A256307
S31508003FF0002BC4D0636A6068E31893F8341100F0A4
S31508004000F1FB002828D0636A0133B3F5807F08BF27
S3150800401000236362E36AB3F5807F0BD0013BE3625A
S31508004020ADE72368186801F0C1FA002820DBE168CB
S31508004030A569C3E72368586801F0B8FA0028A8BF3D
S31508004040E36AEBDA0090104B2846104940F2F31267
S3150800405000F0FAF9E36AE1E76068012100F0DAFBAB
S315080040608DE76068012100F0D5FB13232377B5E7B8
S3150800407000900649284640F20A22054B00F0E4F96A
S31508004080E168A5699AE7C04680660008A065000849
S31508004090A466000810B5114C8AB02060FFF712FD1F
S315080040A001213F2000F006FE21680D4A09230591EB
S315080040B0052002A90293049200F04AFD094800F07F
S315080040C035F90A2001F03AF90028F7DA009006498E
S315080040D000204922054B00F0B7F9EFE7340200202B
S315080040E0C8660008F1400008F46600080C67000876
S315080040F000B540F2342383B002A9C2F2000301F8E6
S31508004100010D01221868FFF7D3FE03B000BDC046B3
S315080041102DE9F04F85B0DDF838E0DDF83CB0DDF884
S3150800412040800C4616461F4600250DF1050AB0FBD1
S31508004130F4F304FB1302915D184605F80A100135DD
S31508004140002BF4D1BEF1000FD4BF4FF000094FF099
S315080041500109BBF1000FD4BF0026012619EA060F94
S31508004160CEEB07071FD1AF4208DD2C46002E0CBF49
S31508004170202030200134C047BC42F7D1BBF1000FE4
S31508004180CCBF002309F0010353B90AEB0504013D2E
S3150800419014F8010DC047002DF9DC05B0BDE8F08F15
S315080041A02D20C047F1E72D20C047DCE7F0B50446CF
S315080041B085B00F461646207800282FD001342528CA
S315080041C033D114F8010B30280CBF14F8010B4FF04B
S315080041D0000EA0F1300108BF4FF0010E092966D87C
S315080041E000256B00EA0014F8010B9B18CD18A0F106
S315080041F030010929F5D96C2808BF14F8010B702875
S3150800420048D014DC63280DD023DC582832D0D2DC01
S3150800421000284ED1013C20780028CFD10A30B0477B
S3150800422005B0F0BD57F8040BC0B2B047C3E7752810
S315080042302DD078282ED07328BDD157F8043B18788E
S315080042400028B8D01D46B04715F8010F0028FAD146
S31508004250B1E76428AFD157F8040B00282EDB0023FA
S3150800426000930A211B4A2B46CDF804E00296FFF775
S315080042704FFFA0E7002357F8040B10210093164AB6
S315080042802B46CDF804E00296FFF742FF93E757F86E
S31508004290040BE4E7002357F8040B102100930F4A98
S315080042A02B46CDF804E00296FFF732FF83E7002598
S315080042B0A1E725287FF47FAFB0477CE70123009369
S315080042C040420A21034A2B46CDF804E00296FFF73E
S315080042D01FFF70E72867000848670008346700086A
S315080042E0036810B5092B02468E4608D00A2B05D15D
S315080042F002F1080105487246FFF758FF10BD02F1A2
S315080043000C0180687246FFF751FFF7E75C67000803
S3150800431000B583B00A4602A941F8040D46F27C703E
S31508004320C0F60000FFF742FF03B000BD70B588B0C5
S31508004330054600246E46684600F078FC00280EDB29
S31508004340009B2418082BF6D984B968462946FFF736
S31508004350C7FF684600F06AFC00240028F0DA1CB1A2
S3150800436020462946FFF7D4FF08B070BD20462946E7
S31508004370FFF7CEFFE9E7C0460EB410B58BB00DAA1D
S31508004380844652F8040B0923019303900992037893
S315080043904FF0010E4BB1BEF1050F06DC441C252B70
S315080043A00CD020460378002BF5D1604601A900F011
S315080043B0CFFB0BB0BDE8104003B07047417801341D
S315080043C0A1F13003092B08D8C21C12F8011C1446A7
S315080043D0A1F130030132092BF7D96C2908BF14F86B
S315080043E0011B702919D012DC632916D023DD642934
S315080043F0D7D1099A0AA9131D099312684FEA8E03A1
S315080044005B1843F81C2C0EF1010E2046CAE77529E5
S31508004410EFD07829EDD07329C3D109994FEA8E03D5
S315080044200A1D09920AAA9B180A680EF1010E43F89A
S315080044301C2C2046B6E711B9013C2046B2E758299C
S31508004440D7D02046AEE7C0462DE9704189B08046F0
S315080044500E980E4615461C4600F012F846F294725F
S315080044600923C0F60002039069464046009302926B
S3150800447004940595069600F06BFB09B0BDE87081BB
S3150800448040B23A303A281FD8DFE800F04A481E1EE4
S315080044901E1E464442401E1E1E1E1E3E3C3A1E1E40
S315080044A01E1E1E1E38361E1E1E1E3432302E1E1EA0
S315080044B01E1E1E1E2C2A1E1E1E1E1E2826241E1EDC
S315080044C01E221E1E1E1E2000164870471648FCE7B0
S315080044D01648FAE71648F8E71648F6E71648F4E7DE
S315080044E01648F2E71648F0E71648EEE71648ECE7EE
S315080044F01648EAE71648E8E71648E6E71648E4E7FE
S315080045001648E2E71648E0E71648DEE71648DCE70D
S315080045101648DAE71648D8E71648D6E71648D4E71D
S315080045201648D2E7C4670008D4670008DC670008A5
S31508004530E4670008EC670008F4670008FC670008F1
S31508004540046800080C680008146800081C6800085D
S31508004550246800082C680008346800083C680008CD
S31508004560446800084C680008546800085C6800083D
S31508004570646800086C68000874680008BC6700086E
S3150800458000B5164880475DF804EB0EF00F000D28BD
S3150800459000F06480704700B5114880475DF804EB69
S315080045A00EF00F000D2800F05980704710B500F086
S315080045B085F900F08DFF01F0EBF801F01BFA10BD4C
S315080045C010B50020FFF71AFA10BDC046002010B536
S315080045D0FFF702FA0020FFF765FA10BD3148000818
S315080045E00D3A00082DE9F04F3D480168C1F818D08A
S315080045F03C4ACA613A483C4A11680160094203D0FC
S31508004600D0F818D0D0F81CF0EFF3148323F0020387
S3150800461083F31488BFF36F8F30BF62B600BF72B6DC
S3150800462043F0020383F31488BFF36F8F2F490A6898
S315080046301242E9D04FF000020A60DBE7BDE8F00F4E
S315080046408A7B12F0040F04D00A69124201D0284965
S31508004650884700BDBDE8014062B600BD72B6EFF3FB
S31508004660098CDCF81C30234A2CE90F002CE90F00D2
S315080046708CF3098870471D48016809421AD04FF023
S3150800468000010160164801681B4A13681B4206D0E0
S31508004690154A1368994202D0184880470AE010481C
S315080046A001688A7B12F0040F04D00A69124201D00D
S315080046B00F4988470799069A059B0792069305911D
S315080046C0BDE80F508EF303885DF804EB62B600BDB3
S315080046D0B0F5D27000DC70475A38FDDC7047000030
S315080046E0FC0F00203D46000804100020740F00202F
S315080046F0C54900087746000800100020E54500086F
S3150800470010B500F0CFF800F04BF800F0FFF900F014
S3150800471031F800F079F9FFF749FFFFF757FF40F640
S315080047204C73C2F2000301221A60FFF764EF10BD52
S3150800473000B583B0EFF3108313F0010F02D1EFF346
S31508004740058372B6094B00221A60FFF739FF084B3A
S315080047500193019A0AB1019B984700F0B7FA00F055
S31508004760ABF800F01FF803B000BDC0464C0F0020A0
S315080047700000000000B5092389B046F69C12009394
S31508004780C0F60002083B0292039304220233052076
S3150800479069460492059300F0DBF909B000BDC046EE
S315080047A07047C046FEE7C0467047C04600220AB1B9
S315080047B0012303610AB101234361704740F6587328
S315080047C046F60C32C2F20003C0F6000200211A6057
S315080047D09960704740F65873C2F2000398687047AC
S315080047E07047C04610B50446FFF7E0FF606910B190
S315080047F000236361012010BD10B50446FFF7D6FFFC
S3150800480023691BB100232361184610BD4FF0FF3002
S31508004810FBE7C046012908D002290CBF1021002158
S31508004820037B41EA0303037370470221F8E7C04696
S3150800483070B5124CA36833B1237B13F0100F0ED159
S3150800484013F0020F00D170BD0C4D2846FFF7AEFFDE
S315080048506369002BF7D06868FFF77EF9F3E720460F
S31508004860FFF7A4FF236923B9237B13F0020FEAD0CD
S31508004870EAE76068FFF770FB237BF6E7580F00202E
S31508004880002383607047C046012908D0022914BF57
S31508004890FF21EF21037B01EA030303737047FD2120
S315080048A0F8E7C0464EF6085341F20062CEF200031E
S315080048B0C2F200021A6070477047C0461F4B0021BB
S315080048C019601F4B1F4A19602DE9F0471E4B1160EE
S315080048D001221A601D4B03F180021B605B600833DE
S315080048E09342FAD11A4A1B4B1668002119601EB367
S315080048F00D46DFF86890DFF86880174F02E001354B
S31508004900B54219D059F82530013B5B0103EB080481
S31508004910A27BDB196FF30002A360A273204600F0A6
S3150800492021F8A3681A6812F0020FE8D0204601356C
S3150800493000F026F8B542E5D1BDE8F087041000205E
S31508004940740F0020FC0F002000100020780F0020B4
S315080049507C680008F80F00208068000820690008B5
S31508004960AC0E002083680021DA68837B427361F30A
S315080049704103DAB261F382020173827301617047FF
S31508004980816870B50B694A690546D2188B68161F87
S3150800499043F0010342F8043C44F6C153C0F6000351
S315080049A043F0010346F8043C4B68341F44F8043CC2
S315080049B044F25463221FC0F600038261C36101F00A
S315080049C033F870BD10B50F4C2268937B10696FF3EE
S315080049D082039373216800230B6162B68B68DA69D8
S315080049E059689047EFF3108313F0010F00D172B6A0
S315080049F0044B19680A69002AE6D18B7B43F0040345
S31508004A008B7310BDFC0F002041F2100241F208031F
S31508004A100020C2F20002C2F200031060186041F2E0
S31508004A200C0241F21403C2F200020121C2F2000391
S31508004A30116018607047C0462DE9F84FEFF30583FB
S31508004A40DB05DB0D1BB96FF01800BDE8F88FEFF337
S31508004A50108313F0010FF6D172B6DFF8A4A0DAF8C6
S31508004A60000000283BD0DFF89CB0DFF89080DFF824
S31508004A709890DBF80010D8F80020D9F80030521AC0
S31508004A805B1A9A4210D92EE06B68A868984762B6F6
S31508004A9072B6386838B3DBF800103268D9F80030D7
S31508004AA0521A5B1A9A421ED8431E144ED8F804505E
S31508004AB058F83310124FCAF80030002BE4D0012002
S31508004AC001F036FA3B68421ED200DB000446921912
S31508004AD09B1993E8030082E803000C60D4E7DFF82B
S31508004AE024B0DFF82490D9F80030CBF80030013331
S31508004AF0C9F8003062B60020A7E7C0467C0E002041
S31508004B0014100020081000200C10002041F2180292
S31508004B100021C2F2000241F22803C2F2000311602A
S31508004B2041F22402C2F20002196041F22C03C2F2D9
S31508004B300003116041F21C02C2F20002196041F240
S31508004B4020031160C2F200033F221A607047C04674
S31508004B502DE9F0470F46EFF3108313F0010902D150
S31508004B60EFF3058372B6274B27491A680B68D218E4
S31508004B70012303FA00F87A60244A136818EA030F37
S31508004B801FD0DFF8A4E0224BDEF800C03D464FEA0E
S31508004B904C14E41826460FCD0FC60CF1010CBCF1D7
S31508004BA01F0F95E80F00CEF800C086E80F0002D95F
S31508004BB00023CEF80030174A13681F2B14D8013388
S31508004BC01360154B1A6818EA020F08D1B9F1000FDD
S31508004BD002D1EFF3058362B60020BDE8F0873846B8
S31508004BE00E49FFF77DFBF1E7DEF800200C4B0D4977
S31508004BF01A600B6801330B60074B1A6818EA020F34
S31508004C00E4D0ECE708100020101000201C1000204B
S31508004C10301000201810002020100020A947000896
S31508004C20241000202C100020281000202DE9F04721
S31508004C308646EFF3108313F0010A02D1EFF30583DA
S31508004C4072B6DFF86890D9F800704FB96FF028008F
S31508004C50BAF1000F02D1EFF3058362B6BDE8F0871B
S31508004C60DFF84C800F4BD8F800C076464FEA4C1454
S31508004C70E41825460FCD0FC60CF1010C95E80F0078
S31508004C8086E80F007B1EBCF11F0FC9F80030C8F874
S31508004C9000C002D90023C8F80030034A0023106870
S31508004CA01360D5E7301000202C10002018100020C3
S31508004CB02410002041F21C0341F22002C2F2000334
S31508004CC0C2F20002186011600020704710B544F265
S31508004CD0A974C0F6000446F61C30C0F60000002190
S31508004CE02246FFF763FA2046FFF720FB10BDC046B1
S31508004CF010B5EFF30583DB05DB0D13B16FF0180074
S31508004D0010BDEFF3108313F0010FF7D1002818DD5B
S31508004D10124B1A68904211DC114B4201D01872B638
S31508004D20047B94B1837B13F0010205BF43F00103B2
S31508004D3083736FF02A00104662B6E1E76FF0110040
S31508004D40DEE7FBD1074B1868E9E7FFF719FE0028ED
S31508004D50F2D0FFF748EC204662B6D1E77C68000837
S31508004D608C0E0020FC0F0020EFF30583DB05DB0D1E
S31508004D7013B16FF018007047EFF3108313F0010FAB
S31508004D80F7D1002812DD0B4B1A6890420BDC0A4B50
S31508004D904201D21872B6937B03F001006FF3000349
S31508004DA0937362B6E7E76FF01100E4E7FBD1034BB4
S31508004DB01A68EFE77C6800088C0E0020FC0F0020BC
S31508004DC010B588B0EFF30583DB05DB0D002B21D189
S31508004DD0EFF3108313F0010F13D1EFF3058372B6C7
S31508004DE0114C23684BB9114A0933042069460093CC
S31508004DF00292FFF7ADFE0123236000F087FE08B09C
S31508004E0010BD0B4A09230420694600930292FFF756
S31508004E109FFEE5E7074A09230020694600930292A8
S31508004E20FFF796FED4E7C046001000208C6B0008FA
S31508004E30606B0008346B000810B5EFF30583DB05DB
S31508004E40DB0D13B16FF0180010BDEFF3108313F0EC
S31508004E50010FF7D1002802DC6FF01100F4E71B4BB5
S31508004E601A689042F8DC1A4B1A4A4101CC181368A2
S31508004E709C4208BF6FF01B00E6D072B6237B1BB9B5
S31508004E806FF0280062B6DFE713F0010F0ED113F0BA
S31508004E90020F02D0204600F0BBFF2046FFF762FD56
S31508004EA0A37B13F0010F05D10020EBE7204600F0A5
S31508004EB0E5FDF2E76FF30003A3732046FFF760FDF5
S31508004EC00028F1D0FFF78EEB0020DBE77C680008AE
S31508004ED08C0E0020FC0F002010B5EFF30583DB05D0
S31508004EE0DB0D13B16FF0180010BDEFF3108313F04C
S31508004EF0010FF7D1002816DD1D4B1A68904213DC06
S31508004F00102988BF6FF01000EED820B3194B420164
S31508004F10D218F1B99368D96872B6137B3BB96FF0AA
S31508004F20280062B6E0E7EBD06FF01100DCE713F07B
S31508004F30010413D113F0200F517302D1002062B679
S31508004F40D2E753691146586800F0D0FF204662B68A
S31508004F50CAE70139E0E7084B1A68DAE7104600F0B5
S31508004F60EDFD0028EAD0FFF73EEB002062B6BBE76E
S31508004F707C6800088C0E0020FC0F0020EFF30583E8
S31508004F80DB05DB0D13B16FF018007047EFF31083E4
S31508004F9013F0010FF7D1002816DD0D4B1A68904261
S31508004FA00FDC0C4B4201D01872B6037B1BB96FF0AD
S31508004FB0280062B6E9E7437B002001330B6062B63E
S31508004FC0E3E76FF01100E0E7FBD1034B1868EBE766
S31508004FD07C6800088C0E0020FC0F002030B583B0DA
S31508004FE0EFF30583DB05DB0D1BB16FF0180003B08B
S31508004FF030BDEFF3108313F00100F6D10F4B1A689A
S31508005000002AF2D072B60E4D2A68917B01F002038F
S31508005010DCB22CB10B4660F34103937362B6E6E744
S315080050200A231373104600F029FD2A6801AB536161
S315080050300194FFF7D8EA019862B6D8E70010002075
S31508005040FC0F002010B5044684B0EFF30583DB059A
S31508005050DB0D1BB16FF0180004B010BDEFF3108321
S3150800506013F00100F6D1134B1A68002AF2D0B4F1F6
S31508005070FF3FB8BF6FF01000EEDB72B60E4B1A6832
S31508005080937B13F0020F1CBF60F34103937302D1A5
S315080050901CB96FF0310062B6DEE70A23137303A862
S315080050A06946224600F0E6FDFFF79CEA039862B6D9
S315080050B0D2E7C04600100020FC0F002010B5EFF321
S315080050C00583DB05DB0D13B16FF0180010BDEFF398
S315080050D0108313F0010FF7D100281CDD184B1A684E
S315080050E0904215DC174B4201D01872B6037B1BB9E8
S315080050F06FF0280062B6E9E713F0080F15D1827B36
S3150800510002F00203D9B251B16FF02A0062B6DDE7A8
S315080051106FF01100DAE7FBD10B4B1868E5E742F0B0
S3150800512002038373084662B6D0E700F0D9FD08B9D2
S3150800513062B6CBE7FFF756EA002062B6C6E7C04676
S315080051407C6800088C0E0020FC0F0020EFF3058316
S31508005150DB05DB0D13B16FF018007047EFF3108312
S3150800516013F0010FF7D1002819DD0F4B1A6890428A
S3150800517012DC0E4B4201D11872B60B7B1BB96FF0CD
S31508005180280062B6E9E78B7B5A086FF3410302F001
S3150800519001008B7362B6E0E76FF01100DDE7FBD123
S315080051A0034B1968E8E7C0467C6800088C0E0020A7
S315080051B0FC0F002010B5EFF30583DB05DB0D13B1FB
S315080051C06FF0180010BDEFF3108313F00104F7D148
S315080051D0002802DC6FF01100F4E70D4B1A689042C4
S315080051E0F8DC0C4A4301981872B6037B13F0020FD9
S315080051F008BF6FF0280001D162B6E3E700F01AFE97
S3150800520008B962B6DEE7FFF7EEE9204662B6D9E7E7
S315080052107C6800088C0E002010B5EFF30583DB05CB
S31508005220DB0D13B16FF0180010BDEFF3108313F008
S31508005230010FF7D1002822DD1D4B1A6890420DDCBC
S315080052401C4B4201D0181C4B72B61B6898421AD0E8
S31508005250037B33B96FF0280062B6E5E76FF01100FB
S31508005260E2E713F0010F16D113F0040205BF43F06D
S31508005270040303736FF02A00104662B6D4E7EDD133
S315080052800D4B1868E0E70D4B1A68002AE0D16FF05D
S31508005290180062B6C8E70423037300F0EFFB08B9E9
S315080052A062B6C1E7FFF79EE9002062B6BCE7C046D2
S315080052B07C6800088C0E0020FC0F002000100020DF
S315080052C010B5EFF30583DB05DB0D13B16FF018009E
S315080052D010BDEFF3108313F00101F7D1002802DCAB
S315080052E06FF01100F4E7114B1A689042F8DC104B86
S315080052F04201D01872B6037B13F0040F08BF6FF093
S31508005300280007D013F002041EBF23F0040303731A
S31508005310084601D062B6DBE700F086FB08B962B63C
S31508005320D6E7FFF760E9204662B6D1E77C68000851
S315080053308C0E002010B5FFF7C3FF10BD30B505462B
S3150800534085B0EFF30583DB05DB0D1BB16FF01800A5
S3150800535005B030BDEFF3108313F0010FF6D1114BF2
S315080053601A68002AF2D00028B8BF6FF01000EFDBE9
S3150800537072B60D4C02232068037300F07FFB226887
S3150800538003AB5361094B68460193094B02921968AE
S31508005390CDF80CD0691800F00BFEFFF724E9039846
S315080053A062B6D5E700100020FC0F0020B15D0008AA
S315080053B00C10002010B5EFF30583DB05DB0D13B1E8
S315080053C06FF0180010BDEFF3108313F0010FF7D13B
S315080053D0002818DD174B1A68904215DC39B318B344
S315080053E0154B4201D01872B6037BCBB18368DA69D4
S315080053F0B2B10369114A0B4303611368984206D098
S31508005400002062B6DEE7E9D06FF01100DAE7837BA9
S3150800541013F0040FF4D0FFF7D5FA002062B6D1E7EF
S315080054206FF0280062B6CDE7044B1868DBE76FF02B
S315080054301000C7E77C6800088C0E0020FC0F0020CF
S31508005440EFF30583DB05DB0D13B16FF0180070472A
S31508005450EFF3108313F00100F7D172B6074B196802
S315080054608A68D3692BB18B7B60F382038B7362B630
S31508005470EDE76FF0280062B6E9E7C046FC0F0020AA
S3150800548010B5EFF30583DB05DB0D13B16FF01800DC
S3150800549010BDEFF3108313F00104F7D172B60B4871
S315080054A001688B68DA696AB18B7B43F004038B73F6
S315080054B00268106908B962B6EAE7FFF783FA204678
S315080054C062B6E5E76FF0280062B6E1E7FC0F002058
S315080054D0094B10B41C6864B10849094A00204B6896
S315080054E00130916012605260D3600C311032A042D4
S315080054F0F5D110BC7047C046346900083869000801
S315080055005C0E002030B589B0EFF30583DB05DB0DB3
S315080055101BB16FF0180009B030BDEFF3108313F01C
S315080055200104F6D1002802DC6FF01100F3E71B4BEB
S315080055301A689042F8DC1A4A0001811872B6855832
S315080055408D4209D02B6883502A682846516000F09E
S31508005550C7FBE8B962B6DEE76B689D420BD0114A15
S315080055600A230292104A009320467533694603932C
S315080055700492FFF7EDFAAB68E9689A68914228BF8A
S315080055806FF02A00E6D24B1CEB60204662B6C2E7F3
S31508005590FFF728E8204662B6BDE7C046346900082A
S315080055A04C0E0020BC6B0008D06B000830B589B0E3
S315080055B0EFF30583DB05DB0D1BB96FF0180009B0A7
S315080055C030BDEFF3108313F00104F6D1002802DC96
S315080055D06FF01100F3E71B4B1A689042F8DC1A4A81
S315080055E00001811872B685588D420DD02B688350FC
S315080055F02A682846516000F073FB08B3134B012252
S315080056001A60204662B6DAE76B689D420BD0104AEC
S315080056100A2302920F4A009320467533694603937C
S315080056200492FFF795FAAB68E9689A68914228BF31
S315080056306FF02A00E6D24B1CEB60204662B6BEE746
S3150800564062B6BCE7346900084C0E0020740F0020CF
S31508005650BC6B0008D06B000800B583B0EFF3058378
S31508005660DB05DB0D1BB16FF0180003B000BDEFF3CF
S31508005670108313F00101F6D10F4B1A68002AF2D0F5
S31508005680002802DC6FF01100EFE70C4B1A68904215
S31508005690F8DC0B4B0201D01872B6C36823B1013B84
S315080056A0C360084662B6E0E7694600F0EFFBFEF71E
S315080056B09AEF0098F6E7C046001000203469000803
S315080056C04C0E002000B5EFF30583DB05DB0D13B1A7
S315080056D06FF0180000BDEFF3108313F0010EF7D139
S315080056E072B6044B04491A680B68D218026062B68F
S315080056F07046EFE7081000201010002030B4054669
S31508005700EFF30583DB05DB0D002B39D1EFF31083AF
S3150800571013F0010F27D01C4B1C4A186811684EF26B
S315080057201803CEF20003401819684FF618424FF4D2
S315080057307A74CFF6FF724FF0FF33E4FB002348F686
S315080057403960C3F6E300A0FB01400009C0F57A7092
S3150800575000464FF00001121843EB0103C5E9002388
S31508005760002030BC704772B6084B074A18681168A3
S315080057704EF21803CEF200034018196862B6D4E751
S315080057806FF01800EDE7C046101000200C1000203E
S31508005790104B2DE9F0411F68CFB10F4D00260F4C75
S315080057A004E001361435BE4211D018342B68256042
S315080057B013F0020308BF6360F3D00123296920466A
S315080057C001366360143500F00BF8BE42EDD1BDE832
S315080057D0F081C0466069000864690008440E00202C
S315080057E045F6C90370B5C0F6000304460D460361C5
S315080057F0606100F10C0000F0DBFBA56070BDC046DF
S3150800580070B5EFF30583DB05DB0D13B16FF01800F8
S3150800581070BDEFF3108313F0010FF7D1002802DCF7
S315080058206FF01100F4E70F4B1A689042F8DCC100DC
S3150800583043010D4A5B1A9D1872B66B6863B901235A
S315080058406B602A68094BD1681C6828466118FFF7FF
S31508005850C7FF62B60020DBE705F10C0000F0C0FBCD
S31508005860EFE7C046606900082C0E00200C100020E7
S3150800587010B5EFF30583DB05DB0D13B16FF01800E8
S3150800588010BDEFF3108313F00104F7D1002802DCF2
S315080058906FF01100F4E70A4B1A689042F8DCC10071
S315080058A04301084A5B1A981872B6436813B962B678
S315080058B02046E5E744600C3000F092FBF7E7C04667
S315080058C0606900082C0E002003688168DA6810B544
S315080058D051180446FFF784FF62B623689A68586829
S315080058E0904772B610BDC04610B5EFF30583DB05C9
S315080058F0DB0D13B16FF0180010BDEFF3108313F032
S31508005900010FF7D1102888BF6FF01000F4D872B6CF
S3150800591040B9074B1A68507B00F06CF920B962B69B
S315080059200020E9E70138F7E7FEF75CEEF7E7C0463F
S31508005930FC0F002010B5EFF30583DB05DB0D13B96B
S315080059406FF0180010BDEFF3108313F00104F7D1C0
S3150800595001380F2888BF6FF01000F3D872B600F030
S3150800596049F910B1024B01221A6062B62046E9E7EE
S31508005970740F0020EFF30583D805C00D38B9EFF38F
S31508005980108313F0010301D172B6184670476FF001
S315080059901800FBE7EFF30583D805C00D40B9EFF310
S315080059A0108313F0010308BF184600D062B670478B
S315080059B06FF01800FBE7C046EFF30580C005C00D81
S315080059C0003818BF01207047EFF30583DB05DB0DB0
S315080059D023B9EFF3108313F0010F01D001207047AC
S315080059E0034B1A68D2F1010038BF0020F7E7C0461A
S315080059F000100020094B30B41C6864B10849094DF1
S31508005A00002051F80C2C51F8043C01300C31A0420E
S31508005A1045F82230F5D130BC7047C0467869000891
S31508005A20886900080016002010B590F80DE00121DD
S31508005A30017301FA0EF10D4B4FEACE02D218044655
S31508005A405068226060600460094854600368094A27
S31508005A5019431368016013B15B7B9E4503D2064B5D
S31508005A601460186810BD0020FCE7C046780F0020B7
S31508005A70F80F0020041000200010002070B505461D
S31508005A80467B6A682B681B49F00013605A604258C7
S31508005A904418944288B00AD017490B68AB4202D022
S31508005AA0002008B070BD154B0A601868F9E75368FE
S31508005AB09A420BD0124A0A230292124A00930020F5
S31508005AC07533694603930492FFF742F80123B340FE
S31508005AD00D49094C0A68DB4303EA0200236808609B
S31508005AE0AB42DDD118B9054B20601868D9E700F03C
S31508005AF0B9FAF8E7780F00200410002000100020FB
S31508005B00BC6B0008D06B0008F80F002010B50A4CD3
S31508005B102068FFF7B3FF2068FEF724FF2268937B0F
S31508005B2013F0010F05D06FF3000393732068FEF797
S31508005B3027FFFEF760ED10BDFC0F0020F0B54268A8
S31508005B40477B0368254D044661730E461360F900CA
S31508005B505A604B594A199A4289B018BF204926D02B
S31508005B60F20052195368226063601C600123B34037
S31508005B7054600A681B4D13430B602B68A34209D077
S31508005B805B7B9E4204D2184B2C60186809B0F0BDA6
S31508005B900020FBE7B742FBD800F064FA844228608D
S31508005BA0F6D0114B1A68101E18BF0120EEE753688D
S31508005BB09A420BD00D4A0A2302920D4A00930020FE
S31508005BC07533694603930492FEF7C2FF0123BB406F
S31508005BD00349DB430A6813400B60C1E7780F0020CE
S31508005BE0F80F00200410002000100020BC6B0008ED
S31508005BF0D06B000810B51A4C4FEAC00E5EF80410B8
S31508005C000EEB0400884288B019D00B6883420DD089
S31508005C104EF804300B680860586042684A6043686A
S31508005C20104A1960136841608B4202D0002008B000
S31508005C3010BD5EF8043013600B4A1068F7E7436836
S31508005C409842F3D0094A0A230292094A009300208F
S31508005C507533694603930492FEF77AFF0020E6E758
S31508005C60780F00200410002000100020BC6B0008EC
S31508005C70D06B0008F0B5154C074689B02068164663
S31508005C800D46FFF7FBFE2468002E67610BDD104BFF
S31508005C903D606B600F4BAC6019682846711800F0C0
S31508005CA087F909B0F0BDB6F1FF3F0BD00A4A0A23BF
S31508005CB002920A4A009300203533694603930492F8
S31508005CC0FEF746FF00233B60EBE7C046FC0F0020CB
S31508005CD03D5D00080C100020E86B0008FC6B00080E
S31508005CE030B543690446186889B010B100F078F9F0
S31508005CF0636900251D60237B13F0020007D013F0AB
S31508005D00040F13D004232373284609B030BD094A6B
S31508005D100A230292084A009369464633039304927B
S31508005D20FEF716FF237B13F0040FEBD12046FFF78F
S31508005D307BFEEAE7E86B0008106C000810B5017BEB
S31508005D4088B011F0100F044605D0436802681A603F
S31508005D5001684B60017B62696FF0310311F0020044
S31508005D60136006D011F0040F12D00423237308B071
S31508005D7010BD0C4A3C3302920B4A009369464633DF
S31508005D8003930492FEF7E4FE217B11F0040FECD195
S31508005D902046FFF749FE0028E9D0044B01221A6085
S31508005DA0E5E7C046E86B0008106C0008740F002091
S31508005DB0426910B500231360037B044613F0020002
S31508005DC088B006D013F0040F12D00423237308B04A
S31508005DD010BD0C4A0A2302920B4A009369464633C1
S31508005DE003930492FEF7B4FE237B13F0040FECD161
S31508005DF02046FFF719FE0028E9D0044B01221A6055
S31508005E00E5E7C046E86B0008106C0008740F002030
S31508005E1010B543690446186808B100F0E1F8237B19
S31508005E2013F0100F1FBF636822681A60216818BF35
S31508005E304B6010BD10B5044688B0FFF7E9FF6269EC
S31508005E406FF030031360237B13F0020007D013F0C2
S31508005E50040F13D004232373002008B010BD094A89
S31508005E600A230292084A009369464633039304922A
S31508005E70FEF76EFE237B13F0040FEBD12046FFF7E7
S31508005E80D3FDEAE7E86B0008106C000870B5164CFD
S31508005E9005462068322303730E46FFF7EFFD246894
S31508005EA0002366613360AA68136813F0010F14D0E3
S31508005EB02A6828469542617B0AD143682060636058
S31508005EC0436844601C60756070BD12689542F4D0E2
S31508005ED0537B9942F9D21046EFE76B6825606360F9
S31508005EE06B686C601C60EEE7FC0F0020836810B5D9
S31508005EF01A680C4612F0010F18D04B680A681A6027
S31508005F00096802684B609042014694F80DE003D197
S31508005F1006E01268904203D0537B9E45F9D211469B
S31508005F204B68216063604B684C601C6010BDC046BE
S31508005F301C4BF0B51D684FEA400E754504462FD335
S31508005F40194B1A4E1F68C7EB010C16E00EF1FF310C
S31508005F5056F83120D21B944522D9CB00621E9B19D4
S31508005F6093E80300D2004FEA4E039219AB4282E847
S31508005F7003000C60744613D89E460EF10100A84231
S31508005F80E4D80EF1FF3156F8312056F83E30D21BD0
S31508005F90DB1B93423EBF1A46714686469445DCD8BB
S31508005FA02046F0BD14100020081000207C0E0020AA
S31508005FB041F21403C2F2000370B5044618680D4690
S31508005FC00130186000F084F840F67C63421EC2F285
S31508005FD0000343F83250D200D2185460206070BDD6
S31508005FE02DE9F0411C4F1D4E3B680468013B56F8ED
S31508005FF033503B60EBB1012C0BD9194B4FEA540EC9
S315080060000EF1FF30196856F830306A1A5B1A9A4250
S3150800601011D320462946FFF78BFF04463B68621ECC
S31508006020D200DB0092199B1993E8030082E803006B
S315080060300C60BDE8F081621EC300D20092199B195C
S3150800604093E8030082E803000C607046294600F0D6
S315080060503FF80446E2E7C046141000207C0E0020F4
S3150800606008100020154B10B51C6888B02004000CD9
S31508006070B8B114F0FF0F11D0002114F00F0203D1AC
S315080060802309043103F00F020D4BD31813F8012C22
S315080060900C4B521853F8320008B010BD240A0821D8
S315080060A0EBE7094A0A230292084A009369468833AD
S315080060B003930492FEF74CFDDBE7C046F80F002079
S315080060C02A6C0008780F00203C6C0008506C000809
S315080060D0012870B5044627D9144B4FEA500E144EC2
S315080060E00EF1FF301D6856F83030C5EB010C5B1B0E
S315080060F063450BD818E04FEA5E010D4A481E52F870
S31508006100303074465B1B63450DD98E46621EC3004C
S31508006110D20092199B19BEF1010F93E8030082E899
S3150800612003000C60E7D87446204670BD08100020AE
S309080061307C0E0020B3
S31508006134686500086C650008706500087461736B0F
S315080061442564207265636569766573206578636579
S315080061547074696F6E203078253034782E200000EC
S31508006164232564236578745F74736B2829000000FB
S3150800617453616D706C652070726F6772616D207300
S31508006184746172747320286578696E66203D2025CB
S3150800619464292E0073616D706C65312E63000000EE
S315080061A473657269616C5F63746C5F706F7228548F
S315080061B441534B5F504F525449442C2028494F436E
S315080061C4544C5F43524C46207C20494F43544C5F01
S315080061D44643534E44207C20494F43544C5F464320
S315080061E4524356292900000073657269616C5F720F
S315080061F465615F646174285441534B5F504F525430
S3150800620449442C2026632C20312900002361637419
S315080062145F74736B28256429000000006163745F4A
S3150800622474736B2874736B69642900002363616E45
S315080062345F6163742825642900000000657263643D
S31508006244203D2063616E5F6163742874736B6964AF
S315080062542900000063616E5F616374282564292040
S3150800626472657475726E73202564000023746572F2
S315080062745F74736B28256429000000007465725FD7
S3150800628474736B2874736B696429000023636867E5
S315080062945F7072692825642C20484947485F505224
S315080062A4494F524954592900236368675F707269D4
S315080062B42825642C204D49445F5052494F5249546D
S315080062C459290000236368675F7072692825642C5E
S315080062D4204C4F575F5052494F5249545929000090
S315080062E4236765745F7072692825642C2026747385
S315080062F46B7072692900000065726364203D20672B
S3150800630465745F7072692874736B69642C202674CB
S31508006314736B7072692900007072696F7269747997
S31508006324206F66207461736B2025642069732025A9
S3150800633464000000237775705F74736B28256429DD
S31508006344000000007775705F74736B2874736B694B
S31508006354642900002363616E5F77757028256429B4
S315080063640000000065726364203D2063616E5F77F8
S3150800637475702874736B69642900000063616E5F25
S31508006384777570282564292072657475726E732072
S31508006394256400002372656C5F7761692825642982
S315080063A40000000072656C5F7761692874736B6915
S315080063B464290000237375735F74736B2825642935
S315080063C4000000007375735F74736B2874736B69CC
S315080063D4642900002372736D5F74736B282564291E
S315080063E40000000072736D5F74736B2874736B69B5
S315080063F464290000236672736D5F74736B282564C1
S31508006404290000006672736D5F74736B2874736B6E
S3150800641469642900237261735F7465782825642C7E
S315080064242030783030303129000000007261735F03
S315080064347465782874736B69642C2030783030302E
S3150800644431290000237261735F7465782825642CEA
S315080064542030783030303229000000007261735FD2
S315080064647465782874736B69642C203078303030FE
S315080064743229000023726F745F726471287468721B
S315080064846565207072696F7269746965732900009D
S3150800649476786765745F74696D28267574696D65A1
S315080064A43129000076786765745F74696D282675E6
S315080064B474696D65322900007574696D6531203D0E
S315080064C42025642C207574696D6532203D20256469
S315080064D40000000053616D706C652070726F6772FE
S315080064E4616D20656E64732E000000007461736B21
S315080064F425642069732072756E6E696E6720282577
S31508006504303364292E202020257300002325642394
S31508006514736C705F74736B28290000002325642349
S3150800652474736C705F74736B2831303030302900A3
S3150800653423256423646C795F74736B283130303097
S3150800654430290000232564236469735F74657828F9
S315080065542900000023256423656E615F7465782825
S31508006564290000007C00000020202B002020202089
S315080065742A0000002E2E2F7379737461736B2F749F
S31508006584696D65722E630000697369675F74696D66
S315080065942829000001000000020000002E2E2F7397
S315080065A479737461736B2F73657269616C2E6300FA
S315080065B46C6F635F6370752829000000756E6C5FE5
S315080065C46370752829000000697369675F73656DD0
S315080065D428737063622D3E7370696E69622D3E730B
S315080065E46E645F73656D6964290000007761695F8D
S315080065F473656D28737063622D3E7370696E696284
S315080066042D3E736E645F73656D696429000000002E
S315080066147761695F73656D28737063622D3E737065
S31508006624696E69622D3E7263765F73656D69642966
S31508006634000000007369675F73656D287370636291
S315080066442D3E7370696E69622D3E736E645F736561
S315080066546D696429000000007369675F73656D28B6
S31508006664737063622D3E7370696E69622D3E726340
S31508006674765F73656D69642900000000697369674C
S315080066845F73656D28737063622D3E7370696E69F6
S3150800669462202D3E736E645F73656D69642900001C
S315080066A4697369675F73656D28737063622D3E73DA
S315080066B470696E69622D3E7263765F73656D69648F
S315080066C42900000053797374656D206C6F676769D8
S315080066D46E67207461736B206973207374617274B6
S315080066E46564206F6E20706F72742025642E000016
S315080066F42E2E2F7379737461736B2F6C6F677461A5
S31508006704736B2E6300000000646C795F74736B28E6
S315080067144C4F475441534B5F494E54455256414C8E
S315080067242900000030313233343536373839000021
S3150800673430313233343536373839616263646566E5
S3150800674400000000303132333435363738394142A7
S31508006754434445460000000025733A25753A20410E
S315080067647373657274696F6E20602573272066617A
S31508006774696C65642E0000002564206D6573736179
S3150800678467657320617265206C6F73742E00000050
S315080067942573207265706F7274656420627920604F
S315080067A425732720696E206C696E65202564206F21
S315080067B46620602573272E00455F424F5652000017
S315080067C4756E6B6E6F776E206572726F720000005D
S315080067D4455F4F4B00000000455F535953000000C6
S315080067E4455F4E4F53505400455F5253464E000082
S315080067F4455F525341545200455F504152000000D0
S31508006804455F494400000000455F435458000000B2
S31508006814455F4D4143560000455F4F4143560000CE
S31508006824455F494C55534500455F4E4F4D454D0010
S31508006834455F4E4F49440000455F4F424A000000F9
S31508006844455F4E4F45585300455F514F5652000019
S31508006854455F524C57414900455F544D4F555400C6
S31508006864455F444C54000000455F434C5300000008
S31508006874455F57424C4B000005000000000000002D
S3150800688401000000C53700080900000000020000E6
S315080068943802002000000000A930000800000000AB
S315080068A402000000C53700080900000000020000C5
S315080068B43804002000000000A93000080000000089
S315080068C403000000C53700080900000000020000A4
S315080068D43806002000000000A93000080200000065
S315080068E400000000FD30000804000000000200005B
S315080068F43808002000000000000000000200000024
S315080069040100000095400008020000000004000091
S31508006914380A002000000000000000000100000002
S315080069240200000003000000040000000500000047
S315080069340200000001000000000000000100000041
S315080069440100000001000000010000000000000032
S315080069540000000000000000000000000100000024
S31508006964000000000000000091300008D007000075
S315080069740000000002000000000000000000000003
S315080069848045000801000000000000009645000844
S3150800699400000000674523010A544F5050455253DE
S315080069A42F4A5350204B65726E656C2052656C6590
S315080069B46173652025642E256420287061746368D4
S315080069C46C6576656C203D2025642920666F7220E7
S315080069D443512D535441524D20284F63742020357A
S315080069E420323030382C2030303A30373A31322998
S315080069F40A436F70797269676874202843292032BC
S31508006A043030302D3230303320627920456D62655E
S31508006A146464656420616E64205265616C2D5469F2
S31508006A246D652053797374656D73204C61626F725A
S31508006A3461746F72790A20202020202020202020CB
S31508006A442020202020202020202020202020202034
S31508006A542020546F796F686173686920556E69766A
S31508006A642E206F6620546563686E6F6C6F67792C89
S31508006A74204A4150414E0A436F70797269676874B7
S31508006A842028432920323030342D323030362062E3
S31508006A947920456D62656464656420616E6420527C
S31508006AA465616C2D54696D652053797374656D73CE
S31508006AB4204C61626F7261746F72790A20202020FB
S31508006AC42020202020202020477261647561746587
S31508006AD4205363686F6F6C206F6620496E666F7209
S31508006AE46D6174696F6E20536369656E63652C20E6
S31508006AF44E61676F796120556E69762E2C204A415E
S31508006B0450414E0A0000000000000000000000008A
S31508006B1400000000000000002D2D206275666665E1
S31508006B24726564206D65737361676573202D2D0026
S31508006B346578745F74736B2069732063616C6C6524
S31508006B44642066726F6D206E6F6E2D7461736B2090
S31508006B54636F6E74657874732E0000006578745FCD
S31508006B6474736B2069732063616C6C656420667248
S31508006B746F6D20435055206C6F636B656420737486
S31508006B846174652E000000006578745F74736B2069
S31508006B9469732063616C6C65642066726F6D20642A
S31508006BA4697370617463682064697361626C65648F
S31508006BB42073746174652E002E2E2F6B65726E65B4
S31508006BC46C2F71756575652E68000000717565759D
S31508006BD4652D3E70726576203D3D20717565756537
S31508006BE4000000002E2E2F6B65726E656C2F776180
S31508006BF469742E6300000000746D6F7574203D3D42
S31508006C0420544D4F5F464556520000005453544194
S31508006C14545F57414954494E47287463622D3E745C
S31508006C247374617429000001000200010003000165
S31508006C3400020001000000002E2E2F6B65726E659F
S31508006C446C2F7461736B2E630000000028626974EC
S31508006C546D61702026203078666666662920213D97
S30908006C6420300000CE
S3150800809800000000000000000000000000000000CA
S315080080A800000000000000000000000000000000BA
S315080080B800000000000000000000000000000000AA
S315080080C8000000000000000000000000000000009A
S315080080D8000000000000000000000000000000008A
S315080080E8000000000000000000000000000000007A
S315080080F8000000000000000000000000000000006A
S315080081080000000000000000000000000000000059
S315080081180000000000000000000000000000000049
S315080081280000000000000000000000000000000039
S315080081380000000000000000000000000000000029
S315080081480000000000000000000000000000000019
S315080081580000000000000000000000000000000009
S3150800816800000000000000000000000000000000F9
S3150800817800000000000000000000000000000000E9
S3150800818800000000000000000000000000000000D9
S3150800826800000000000000000000000000000000F8
S3150800827800000000000000000000000000000000E8
S3150800828800000000000000000000000000000000D8
S3150800829800000000000000000000000000000000C8
S315080082A800000000000000000000000000000000B8
S315080082B800000000000000000000000000000000A8
S315080082C80000000000000000000000000000000098
S315080082D80000000000000000000000000000000088
S315080082E80000000000000000000000000000000078
S315080082F80000000000000000000000000000000068
S315080083080000000000000000000000000000000057
S315080083180000000000000000000000000000000047
S315080083280000000000000000000000000000000037
S315080083380000000000000000000000000000000027
S311080083480000000000000000000000001B
S70508003010B2
